:020000040000FA
:1000000078272020C9010000CD010000CF010000A9
:1000100000000000000000000000000000000000E0
:10002000000000000000000000000000D1010000FE
:100030000000000000000000D3010000D501000016
:10004000D7010000D7010000D7010000D701000050
:10005000D7010000D7010000D7010000D701000040
:10006000D7010000D7010000D7010000D701000030
:10007000D7010000D7010000D7010000D701000020
:10008000D7010000D7010000391E0000D701000091
:10009000D7010000D7010000D7010000D701000000
:1000A000D7010000D7010000D7010000D7010000F0
:1000B000D7010000D7010000D7010000D7010000E0
:1000C00000F002F800F054F812A030C808382418E4
:1000D0002D18AC4201D100F04BF80FCCA246AB4634
:1000E0000CA730CF2D1B083F3F197C427F1E544484
:1000F0002D090426F441641EAC4201D300F038F807
:100100000126334200D0FB1A3343984754465D46DC
:10011000DFE70000B4310000D4310000000000002F
:10012000103A02D378C878C1FAD8520701D330C840
:1001300030C101D504680C60704700000000000069
:100140007047000000000000002300240025002666
:10015000103A01D378C1FBD8520700D330C100D583
:100160000B6070471FB500F05BF81FBD10B510BDE8
:1001700000F07DF91146FFF7F5FF02F01DF800F0E1
:1001800095F903B4FFF7F2FF03BC00F09BF9000000
:1001900030B40C490C684A6823681068C0181060B5
:1001A000241D121D8C4207D28A4208D20C604A607C
:1001B00030BC4000400870470C00DC3CF6E70A0009
:1001C000DC3AF3E73C01202006480047FEE7FEE763
:1001D000FEE7FEE7FEE7FEE703480449024A044B58
:1001E00070470000C10000007807202078272020F9
:1001F000780720200B4A30B511460B4C60310B4676
:10020000DC3B0CC1372106E0020C8D0012185A515C
:10021000064A504300190A46491E002AF4DC30BD44
:100220000120E7E7DC002020E119D666CD0D0100B2
:1002300001E004C0091F0429FBD28B0701D502800D
:10024000801CC90700D00270704700290BD0C3077B
:1002500002D00270401C491E022904D3830702D534
:100260000280801C891EE3E70022EEE70022DFE720
:10027000002203098B4273D3030A8B4258D3030B2A
:100280008B423CD3030C8B4221D312E003460B4339
:100290007FD4002243088B4274D303098B425FD37F
:1002A000030A8B4244D3030B8B4228D3030C8B42AB
:1002B0000DD30902FF2212BA030C8B4202D3121291
:1002C000090265D0030B8B4219D300E0090AC30B66
:1002D0008B4201D3CB03C01A5241830B8B4201D313
:1002E0008B03C01A5241430B8B4201D34B03C01AFC
:1002F0005241030B8B4201D30B03C01A5241C30A74
:100300008B4201D3CB02C01A5241830A8B4201D3E4
:100310008B02C01A5241430A8B4201D34B02C01ACE
:100320005241030A8B4201D30B02C01A5241CDD273
:10033000C3098B4201D3CB01C01A524183098B42BE
:1003400001D38B01C01A524143098B4201D34B01A7
:10035000C01A524103098B4201D30B01C01A52410A
:10036000C3088B4201D3CB00C01A524183088B4291
:1003700001D38B00C01A524143088B4201D34B007A
:10038000C01A5241411A00D20146524110467047EC
:100390005DE0CA0F00D04942031000D340425340F1
:1003A0009C46002203098B422DD3030A8B4212D3B1
:1003B0008901FC2212BA030A8B420CD389019211E3
:1003C0008B4208D3890192118B4204D389013AD020
:1003D000921100E08909C3098B4201D3CB01C01AF5
:1003E000524183098B4201D38B01C01A5241430908
:1003F0008B4201D34B01C01A524103098B4201D3F6
:100400000B01C01A5241C3088B4201D3CB00C01A62
:10041000524183088B4201D38B00C01A5241D9D27A
:1004200043088B4201D34B00C01A5241411A00D2FB
:1004300001465241104663465B1001D34042002BF7
:1004400000D54942704763465B1000D3404201B576
:100450000449002802DC491C084000E00846C04668
:10046000C04602BDFFFFFF7F70477047704775466B
:1004700000F024F8AE46050069465346C008C000A7
:10048000854618B020B5FFF7A7FE60BCB64600262B
:100490000027C0C5C0C5C0C5C0C5C0C5C0C5C0C592
:1004A000C0C5403D490849008D46704710B5044617
:1004B000C046C0462046FFF764FE10BD00487047A6
:1004C0004401202001491820ABBEFEE726000200AF
:1004D0007047811E091F00BFFCD2704712490A688D
:1004E000124802604A6842608A688260CA68C260D4
:1004F0000A6902614A6942618A698261CA69C261A4
:100500000A6A02624A6A42628A6A8262CA6AC2628B
:100510000A6B02634A6B42638A6B8263C96B7B4AD4
:100520000264C1637047C0460000C441000020203F
:10053000B0B51122120283580C4C1C400B894D8817
:100540001D438B792B430A4D1D4063198350CB7992
:100550008C881C43097821435D239B001940801837
:1005600042689A4351184160B0BDC04680CCFFFF3D
:100570007F33000010B50122120383180C785C60F1
:100580004978815010BD0000F0B585B004460125C2
:100590002902394E30680491884330605A48006817
:1005A000006C5A49884201D0FFF798FFA9036C48B4
:1005B00002680A4208D102680A4205D102680A426A
:1005C00002D102680A42F3D0617E2940B269AA438F
:1005D0005118B1612021615C03221140F3699343FA
:1005E0005918F16125490A6805230B60636A1F6881
:1005F00037625B687362072313400B60E1697F22F7
:100600001202F36993434906490C5918F1612768AE
:1006100003956568A1680091E368216901916169AA
:100620000291B269164911403A07120B2D03ADB27F
:10063000AA181A43009B1B071B0D1343019A13436F
:10064000029A1343227E1A430E4B13405918B1618C
:100650003168049A114331600399490202680A42E1
:1006600008D102680A4205D102680A4202D1026832
:100670000A42F3D005B0F0BD08010B400013404022
:100680008D00F0FF72FF0F00F0B581B014460D46EB
:1006900006461D480068006C1C49884201D0FFF7DF
:1006A0001DFF1B480246083A136801218B43136063
:1006B00003231B031E4007689F43BB1903600368A5
:1006C000FF26B343EDB25B19036013680B4313605D
:1006D0000268002C12D00B071A430260080220495E
:1006E0000A68024208D10A68024205D10A68024239
:1006F00002D10A680242F3D001B0F0BD09078A4373
:10070000026001B0F0BDC04644002020FECAFECA0F
:1007100010010B4010B511498860012253051048A3
:1007200004681C4208D104681C4205D104681C42BC
:1007300002D104681C42F3D012040B6813430B600F
:100740000168C90608D40168C90605D40168C9064C
:1007500002D40168C906F3D510BDC04604010B40A0
:1007600004020B40B0B53B4A80184A6842600A78E0
:10077000222A57D8930001A4E3589F461B08000083
:10078000250800001B0800002508000025080000BF
:1007900025080000250800002508000025080000A5
:1007A0002508000025080000250800002508000095
:1007B00025080000250800002508000009080000A1
:1007C0002508000009080000250800002508000091
:1007D0002508000025080000250800002508000065
:1007E0002508000025080000250800002508000055
:1007F0002508000025080000250800000908000061
:10080000250800000908000003231B0704689C4317
:1008100001235B07E318036004E003231B0704685C
:100820009C4304600B69C360CB680B4C1C40C36ADB
:100830000A4D1D402B19C3620368094C1C4004601B
:10084000097A11433F22114003689343591801600C
:10085000B0BDC04604180000777702008888FDFF0D
:100860007F00FFFF10B50122120383180C789C60F3
:100870004B7883508978014A815010BD0C110000DB
:10088000F0B587B0F048402404611920C0010390FE
:10089000FFF71FFE012739057A4D2868C002049131
:1008A00005D42868084202D10123002001E000237A
:1008B00038463A062968C901029206D429681142CD
:1008C00003D102210691002101E0069339467B06FF
:1008D0002A689201019306D42A681A4203D103229E
:1008E0000692002200E03A46FE062B681B0104D463
:1008F0002B68334201D1002074E005960840104077
:10090000D14804600FD0802404610398FFF7E1FD13
:1009100028680499084208D12868084205D10120B6
:100920000690002002E0002077E03846029A019B02
:100930002968114206D12968114203D1022106918A
:10094000002100E039462A681A4206D12A681A4274
:1009500003D103220692002200E03A462B68059E4E
:10096000334205D12B68059E334201D1042039E082
:1009700008401040B44804600FD0012634020461DE
:100980000398FFF7A6FD28680499084207D1286854
:10099000084204D10020069602E004203DE03846DB
:1009A000029A019B2968114206D12968114203D19C
:1009B00002210691002100E039462A681A42009679
:1009C00006D12A681A4203D103220692002200E0CF
:1009D0003A462B68059E334208D12B68059E334268
:1009E00004D1082098490C60042117E00840104009
:1009F0009548046010D000994C0204610398FFF7F9
:100A000068FD2868049908420DD1286808420AD177
:100A10000D20069000200AE00820069909181A48BF
:100A2000405C07B0F0BD06980C3006903846029A3C
:100A3000019B2968114206D12968114203D10E2178
:100A40000691002100E039462A681A4205D12A6839
:100A50001A4202D10F22069200272A68059B1A42E9
:100A600006D12A681A4203D1774804601021D6E7DC
:100A7000084038407448046001D10699CFE700214E
:100A8000CDE7C04680330A4048002020F0B581B051
:100A900001210802490200226D4B6E4C03E0521CFA
:100AA000082A00D19CE0186119612568ED0608D577
:100AB0002568ED0605D52568ED0602D52568ED0605
:100AC000F3D41546B03525632568ED0608D52568AD
:100AD000ED0605D52568ED0602D52568ED06F3D4AB
:100AE00019601860186119612568ED0608D5256838
:100AF000ED0605D52568ED0602D52568ED06F3D48B
:100B0000022525632568ED0608D52568ED0605D57F
:100B10002568ED0602D52568ED06F3D41960186046
:100B2000186119612568ED0608D52568ED0605D51B
:100B30002568ED0602D52568ED06F3D4102525635A
:100B40002568ED0608D52568ED0605D52568ED066E
:100B500002D52568ED06F3D419601860002505E07C
:100B600019601860AD1C6DB2002D98D41860196121
:100B70002668F60608D52668F60605D52668F60620
:100B800002D52668F606F3D4002626632768FF06FA
:100B900008D52768FF0605D52768FF0602D5276810
:100BA000FF06F3D419601860186019612768FF0602
:100BB00008D52768FF0605D52768FF0602D52768F0
:100BC000FF06F3D426632668F606C9D52668F6061E
:100BD000C6D52668F606C3D52668F606F3D4BFE761
:100BE000412001010B48FFF741FB01B0F0BDC046B9
:100BF00010B507240C400123A340C000054C201869
:100C0000C908445C002A02D01C43445410BD9C43D4
:100C1000445410BDA4012020F0B583B00127FD0588
:100C2000094E3560094C2046FFF753FC35612046DC
:100C3000FFF74FFC35603C02054D2C6102977E02A8
:100C40002E61044F08E0C04690320A4000127A003C
:100C500090520A40109146403868C00608D538685E
:100C6000C00605D53868C00602D53868C006F3D47A
:100C7000AE2038633868C00608D53868C00605D588
:100C80003868C00602D53868C006F3D42E602C60E0
:100C90002C612E613868C00608D53868C00605D5B5
:100CA0003868C00602D53868C006F3D4022038631D
:100CB0003968C90608D53968C90605D53968C9062D
:100CC00002D53968C906F3D42E602C602C612E61E0
:100CD0003968C90608D53968C90605D53968C9060D
:100CE00002D53968C906F3D41021019139633968F6
:100CF000C90608D53968C90605D53968C90602D5B7
:100D00003968C906F3D42E602C602C612E613968D5
:100D1000C90608D53968C90605D53968C90602D596
:100D20003968C906F3D440223A633968C90608D540
:100D30003968C90605D53968C90602D53968C906B2
:100D4000F3D42E602C602C612E613968C90608D559
:100D50003968C90605D53968C90602D53968C90692
:100D6000F3D4812139633968C90608D53968C906C1
:100D700005D53968C90602D53968C906F3D42E608D
:100D80002C602C612E613968C90608D53968C906FE
:100D900005D53968C90602D53968C906F3D4CF210B
:100DA00039633968C90608D53968C90605D539686F
:100DB000C90602D53968C906F3D42E602C602C61AF
:100DC0002E613968C90608D53968C90605D539685C
:100DD000C90602D53968C906F3D4A1213963396837
:100DE000C90608D53968C90605D53968C90602D5C6
:100DF0003968C906F3D42E602C602C612E613968E5
:100E0000C90608D53968C90605D53968C90602D5A5
:100E10003968C906F3D4C82139633968C90608D5C9
:100E20003968C90605D53968C90602D53968C906C1
:100E3000F3D42E602C602C612E613968C90608D568
:100E40003968C90605D53968C90602D53968C906A1
:100E5000F3D4A62139633B68DB0608D53B68DB0683
:100E600005D53B68DB0602D53B68DB06F3D42E6074
:100E70002C602C612E613B68DB0608D53B68DB06E5
:100E800005D53B68DB0602D53B68DB06F3D4A82317
:100E90003B633B68DB0608D53B68DB0605D53B6852
:100EA000DB0602D53B68DB06F3D42E602C602C6198
:100EB0002E613B68DB0608D53B68DB0605D53B6841
:100EC000DB0602D53B68DB06F3D43F233B633B687C
:100ED000DB0608D53B68DB0605D53B68DB0602D59B
:100EE0003B68DB06F3D42E602C602C612E613B68DE
:100EF000DB0608D53B68DB0605D53B68DB0602D57B
:100F00003B68DB06F3D4D3233B633B68DB0608D5A1
:100F10003B68DB0605D53B68DB0602D53B68DB0694
:100F2000F3D42E602C602C612E613B68DB0608D563
:100F30003B68DB0605D53B68DB0602D53B68DB0674
:100F4000F3D400233B633B68DB0608D53B68DB0634
:100F500005D53B68DB0602D53B68DB06F3D42E6083
:100F60002C602C612E613B68DB0608D53B68DB06F4
:100F700005D53B68DB0602D53B68DB06F3D4D523F9
:100F80003B633B68DB0608D53B68DB0605D53B6861
:100F9000DB0602D53B68DB06F3D42E602C602C61A7
:100FA0002E613B68DB0608D53B68DB0605D53B6850
:100FB000DB0602D53B68DB06F3D480233B633B684A
:100FC000DB0608D53B68DB0605D53B68DB0602D5AA
:100FD0003B68DB06F3D42E602C602C612E613B68ED
:100FE000DB0608D53B68DB0605D53B68DB0602D58A
:100FF0003B68DB06F3D4D9233B633B68DB0608D5AB
:101000003B68DB0605D53B68DB0602D53B68DB06A3
:10101000F3D42E602C602C612E613B68DB0608D572
:101020003B68DB0605D53B68DB0602D53B68DB0683
:10103000F3D4F1233B633B68DB0608D53B68DB0652
:1010400005D53B68DB0602D53B68DB06F3D42E6092
:101050002C602C612E613B68DB0608D53B68DB0603
:1010600005D53B68DB0602D53B68DB06F3D4DA2303
:101070003B633B68DB0608D53B68DB0605D53B6870
:10108000DB0602D53B68DB06F3D42E602C602C61B6
:101090002E613B68DB0608D53B68DB0605D53B685F
:1010A000DB0602D53B68DB06F3D412233B633B68C7
:1010B000DB0608D53B68DB0605D53B68DB0602D5B9
:1010C0003B68DB06F3D42E602C602C612E613B68FC
:1010D000DB0608D53B68DB0605D53B68DB0602D599
:1010E0003B68DB06F3D4DB233B633B68DB0608D5B8
:1010F0003B68DB0605D53B68DB0602D53B68DB06B3
:10110000F3D42E602C602C612E613B68DB0608D581
:101110003B68DB0605D53B68DB0602D53B68DB0692
:10112000F3D43A633A68D20608D53A68D20605D5B0
:101130003A68D20602D53A68D206F3D42E602C6003
:101140002C612E613A68D20608D53A68D20605D5D8
:101150003A68D20602D53A68D206F3D420223A631E
:101160003A68D20608D53A68D20605D53A68D2065A
:1011700002D53A68D206F3D42E602C602C612E6121
:101180003A68D20608D53A68D20605D53A68D2063A
:1011900002D53A68D206F3D438633868C00608D559
:1011A0003868C00605D53868C00602D53868C0065C
:1011B000F3D42E602C602C612E613868C00608D5EF
:1011C0003868C00605D53868C00602D53868C0063C
:1011D000F3D48D2038633868C00608D53868C00657
:1011E00005D53868C00602D53868C006F3D42E602D
:1011F0002C602C612E613868C00608D53868C0069E
:1012000005D53868C00602D53868C006F3D4142066
:1012100038633868C00608D53868C00605D5386810
:10122000C00602D53868C006F3D42E602C602C614D
:101230002E613868C00608D53868C00605D53868FC
:10124000C00602D53868C006F3D4A42038633868D5
:10125000C00608D53868C00605D53868C00602D56E
:101260003868C006F3D42E602C602C612E6138687B
:10127000C00608D53868C00605D53868C00602D54E
:101280003868C006F3D439633868C00608D53868B2
:10129000C00605D53868C00602D53868C006F3D444
:1012A0002E602C602C612E613868C00608D5386825
:1012B000C00605D53868C00602D53868C006F3D424
:1012C000AF2038633968C90608D53968C90605D51D
:1012D0003968C90602D53968C906F3D42E602C6076
:1012E0002C612E613968C90608D53968C90605D54B
:1012F0003968C90602D53968C906F3D43863386835
:10130000C00608D53868C00605D53868C00602D5BD
:101310003868C006F3D42E602C60FFF7B7FB2C6151
:101320002E613868C00608D53868C00605D538680B
:10133000C00602D53868C006F3D4B02038633868D8
:10134000C00608D53868C00605D53868C00602D57D
:101350003868C006F3D42E602C602C612E6138688A
:10136000C00608D53868C00605D53868C00602D55D
:101370003868C006F3D4019838633868C00608D5C9
:101380003868C00605D53868C00602D53868C0067A
:10139000F3D42E602C602C612E613868C00608D50D
:1013A0003868C00605D53868C00602D53868C0065A
:1013B000F3D4029838633868C00608D53868C00688
:1013C00005D53868C00602D53868C006F3D42E604B
:1013D0002C6003B0F0BD0000F0B583B00120010225
:1013E000420200276B4B6C4D6C4C019100920AE05D
:1013F0006748FFF76EF8009A664B1A607F1C082F4B
:10140000019900D1C1E019611A612868C00608D5A8
:101410002868C00605D52868C00602D52868C00619
:10142000F3D43846B03028632868C00608D5286849
:10143000C00605D52868C00602D52868C006F3D4C2
:101440001A60196019611A612868C00608D52868F1
:10145000C00605D52868C00602D52868C006F3D4A2
:1014600000262E632868C00608D52868C00605D562
:101470002868C00602D52868C006F3D41A6019602F
:1014800019611A612868C00608D52868C00605D504
:101490002868C00602D52868C006F3D41020029040
:1014A00028632868C00608D52868C00605D52868BE
:1014B000C00602D52868C006F3D41A6019601A6104
:1014C0003348FFF706F82868C00608D52868C00624
:1014D00005D52868C00602D52868C006F3D4029A4C
:1014E0002868C0060DD52868C0060AD52868C00639
:1014F00007D52868C006F3D403E0361D802E00D13E
:1015000076E7F0002118C95D29632968C90608D566
:101510002968C90605D52968C90602D52968C906FA
:10152000F3D4082101436118C95D29632968C906FC
:1015300008D52968C90605D52968C90602D52968CC
:10154000C906F3D4014611436118C95D29632968AE
:10155000C90608D52968C90605D52968C90602D56E
:101560002968C906F3D4182108432018C05D2863F0
:101570002868C006C1D52868C006BED52868C00640
:10158000BBD52868C006F3D4B7E703B0F0BDC046AA
:10159000801A060090520A4010914640A401202073
:1015A000F0B585B0029101210C02AD4D2C61039183
:1015B0004E022E61AB4F3968C90608D53968C90695
:1015C00005D53968C90602D53968C906F3D4029928
:1015D0005039C9B239633968C90608D53968C906AE
:1015E00005D53968C90602D53968C906F3D42E6015
:1015F0002C602C612E613968C90608D53968C90686
:1016000005D53968C90602D53968C906F3D4010978
:101610001031019139633968C90608D53968C9069E
:1016200005D53968C90602D53968C906F3D42E60D4
:101630002C602C612E613968C90608D53968C90645
:1016400005D53968C90602D53968C906F3D40E2113
:101650000840401C009038633868C00608D53868D8
:10166000C00605D53868C00602D53868C006F3D470
:101670002E602C6050000490002104E02E602C604D
:10168000891C102941D02C602E61049842017648B3
:101690008218535C3868C00608D53868C00605D57E
:1016A0003868C00602D53868C006F3D43B63386892
:1016B000C00608D53868C00605D53868C00602D50A
:1016C0003868C006F3D42E602C602C602E6108466A
:1016D000039B1843125C3868C00608D53868C006FA
:1016E00005D53868C00602D53868C006F3D43A6319
:1016F0003868C006C2D53868C006BFD53868C0068D
:10170000BCD53868C006F3D4B8E72C612E613868C0
:10171000C00608D53868C00605D53868C00602D5A9
:101720003868C006F3D402984F38C0B238633868BE
:10173000C00608D53868C00605D53868C00602D589
:101740003868C006F3D42E602C602C612E61386896
:10175000C00608D53868C00605D53868C00602D569
:101760003868C006F3D4019838633868C00608D5D5
:101770003868C00605D53868C00602D53868C00686
:10178000F3D42E602C602C612E613868C00608D519
:101790003868C00605D53868C00602D53868C00666
:1017A000F3D4009838633868C00608D53868C00696
:1017B00005D53868C00602D53868C006F3D42E6057
:1017C0002C600398049901430491002104E02E60E9
:1017D0002C60891C102941D02C602E610498400196
:1017E000214A1218535C3868C00608D53868C0060C
:1017F00005D53868C00602D53868C006F3D43B6307
:101800003868C00608D53868C00605D53868C006EF
:1018100002D53868C006F3D42E602C602C602E618F
:101820000846039B1843125C3868C00608D5386820
:10183000C00605D53868C00602D53868C006F3D49E
:101840003A633868C006C2D53868C006BFD5386864
:10185000C006BCD53868C006F3D4B8E705B0F0BD03
:1018600090520A401091464038290000F0B585B0EA
:1018700001231C02F54D2C6104935E022E61830945
:1018800002271F407F18AE490B68DB0608D50B689E
:10189000DB0605D50B68DB0602D50B68DB06F3D447
:1018A0003B46503BDBB20B63203A00920B68DB06F1
:1018B00008D50B68DB0605D50B68DB0602D50B687F
:1018C000DB06F3D43A462E602C602C612E610B6847
:1018D000DB0608D50B68DB0605D50B68DB0602D5F1
:1018E0000B68DB06F3D440B2C317984303091027F3
:1018F0001F4302970F630B68DB0608D50B68DB06F6
:1019000005D50B68DB0602D50B68DB06F3D42E6029
:101910002C602C612E610B68DB0608D50B68DB069A
:1019200005D50B68DB0602D50B68DB06F3D4039202
:101930000E231840401C019008630868C00608D5B3
:101940000868C00605D50868C00602D50868C00644
:10195000F3D42E602C600098C0B20001002704E090
:101960002E602C60BF1C082F41D02C602E61C31943
:10197000744AD35C0A68D20608D50A68D20605D52F
:101980000A68D20602D50A68D206F3D40B630A6845
:10199000D20608D50A68D20605D50A68D20602D54D
:1019A0000A68D206F3D42E602C602C602E613A4671
:1019B000049B1A438218634B9B5C0A68D20608D5C5
:1019C0000A68D20605D50A68D20602D50A68D20688
:1019D000F3D40B630A68D206C2D50A68D206BFD513
:1019E0000A68D206BCD50A68D206F3D4B8E72C61DF
:1019F0002E610A68D20608D50A68D20605D50A689B
:101A0000D20602D50A68D206F3D4039A4F3AD2B26C
:101A10000A630A68D20608D50A68D20605D50A689C
:101A2000D20602D50A68D206F3D42E602C602C614F
:101A30002E610A68D20608D50A68D20605D50A685A
:101A4000D20602D50A68D206F3D4029A0A630A685B
:101A5000D20608D50A68D20605D50A68D20602D58C
:101A60000A68D206F3D42E602C602C612E610A68BD
:101A7000D20608D50A68D20605D50A68D20602D56C
:101A80000A68D206F3D4019A0A630A68D20608D516
:101A90000A68D20605D50A68D20602D50A68D206B7
:101AA000F3D42E602C6008221043002704E02E603F
:101AB0002C60BF1C082F41D02C602E61C219214B15
:101AC0009B5C0A68D20608D50A68D20605D50A6862
:101AD000D20602D50A68D206F3D40B630A68D2068E
:101AE00008D50A68D20605D50A68D20602D50A6862
:101AF000D206F3D42E602C602C602E613A46049BF3
:101B00001A4382180F4B9B5C0A68D20608D50A68F4
:101B1000D20605D50A68D20602D50A68D206F3D4E1
:101B20000B630A68D206C2D50A68D206BFD50A6816
:101B3000D206BCD50A68D206F3D4B8E705B0F0BD2A
:101B4000109146404823000070B5324801461039D4
:101B500000220A6001460C390A608B2181604160D5
:101B60002D492E4C0C650A6D0A652D4BC363036429
:101B7000836543664B624B648B64CB64294D2B6059
:101B800081226A6043628362C36203630C600E68F1
:101B90000E600C610E690E610C620E6A0E628C6240
:101BA0008C6A8C62CA60AA60EB601F4B0360046899
:101BB0000460436143694361826102654265026674
:101BC000081F02608A6019481949016109218903C7
:101BD0000160184901641848184901611D218906EE
:101BE0000160174901640120C00716490A680243D1
:101BF0000A6015490A6A02430A620A6802430A60D7
:101C00000320000211490861C0220A60C030086444
:101C100070BDC04638804240C080424081000E0006
:101C2000810002005081424081000C0090120A4065
:101C3000003241000072430090320A40C033C000BD
:101C4000C033C074A0330A4028300A4090520A4082
:101C500010B50D4C0D492046FEF78CFC0C49204672
:101C6000FEF766FC0B4841680B4A0A40D11C4160F4
:101C7000816812220A432D218A4382600168012271
:101C80000A43026010BDC046008046407832000022
:101C90007A3200000491464000FCFFFFF0B581B0AD
:101CA0001F48002404600F2630021E4D296881431E
:101CB000012778020090081828600320C1432A1FDA
:101CC00013680B4013606968B943696039026A6838
:101CD0008A436A6000030A212246FEF7D5FC1248B7
:101CE000FEF752FC2968102001432022914329600D
:101CF00031036A6B8A430921090351186963390367
:101D00002A680A432A60A96B0143A963686B00999A
:101D1000084368632046FEF7FDFC01B0F0BDC046F5
:101D200008030B4004010B408432000010B5084C3E
:101D300008492046FEF796FD07492046FEF712FDAA
:101D4000064801680122114301600548026010BD88
:101D500000008640AC320000B032000028108640FF
:101D60000811864010B50E4807220261036803215E
:101D70000B4303600B4B1C68640708D41C686407A2
:101D800005D41C68640702D41C686407F3D50424D6
:101D90009C6112020368934309025918016010BD47
:101DA000005144403050444080B500F01BF8FFF72C
:101DB000CBFEFFF773FFFFF7B9FFFFF749FFFFF710
:101DC000D1FF2420044900220A54B82003490A54B0
:101DD0000348027380BDC046B8052020E0052020DE
:101DE0009C06202070B50C480C4941600C4A51609B
:101DF0000C4B59600C4C61600C4D6960891E0C4E97
:101E000071600C49016011601960216029603160C6
:101E10001020FEF75EFB70BD00080A40030000B111
:101E200000280A4000480A400008864000884640D2
:101E30000048444001000026DC4800210170704742
:101E400010B52D2003241B222146FFF7A9FB3D20BE
:101E50001C222146FFF7A4FB4D201D222146FFF73F
:101E60009FFB10BDB0B500200124202521462A4645
:101E7000FFF796FB102021222146FFF791FB22223B
:101E800028462146FFF78CFB302023222146FFF70E
:101E900087FB602024222146FFF782FB702041222D
:101EA0002146FFF7E3FCB0BDF0B58FB0C04D6978B7
:101EB000287802460A431AD0401CC0B200242246A9
:101EC000FEF796FE69782878401EC0B22246FEF7DB
:101ED0008FFE28786978491CC9B22246FEF788FE31
:101EE00028786978491EC9B22246FEF781FE01278B
:101EF00003E00799C80700D182E0FEF749F90546DB
:101F0000FEF746F93E21FEF7C1F90E460CAC6172B0
:101F10007E212846FEF7BAF9481C2072A071217173
:101F20000391891C0291A17005902070B01C04904F
:101F3000E0710696701C6071E070019060709D48C1
:101F4000007808904000811E0B91011F0A91811FAB
:101F500009910022394603E00021521C052AC9D00C
:101F6000079151000CAE73185B785D425D41765C61
:101F700031467F397D24E443A142394600D32946C6
:101F80003E2B3D4600D800250029394600D1294680
:101F9000089C654265410029394600D1294600293F
:101FA00003D0042AD8D20121D7E7002102E008316A
:101FB0008842F6D0E24D6C5CB44203D16C18647870
:101FC0009C4296D00B9C8C42EBD0DD4C6518AC78D3
:101FD000B44202D1EC789C428BD00A9C8C42E0D077
:101FE0002C79B44202D16C799C4282D0099C8C42FB
:101FF000D7D0AC79B442DAD1EC799C42D7D178E72A
:102000006B4801994170059C04700298C0B2CFB230
:10201000012639463246FEF7EBFD0398C0B2394639
:102020003246FEF7E5FDE5B20498C1B228463246D5
:10203000FEF7DEFD0698C1B228463246FEF7D8FD0F
:10204000FFF7CAF958480168314301600FB0F0BD8D
:10205000F0B581B00120800351490860FEF716FDFC
:102060002620B74D3B21295424203A2129542220EF
:102070003921295420203821295429462631282065
:102080004870294624314870294622314870294633
:1020900020314870E8773721A9776877362129778A
:1020A000E8763521A976687634212976E8753321DA
:1020B000A975687532212975E8743121A97468748D
:1020C00030212974E8732F21A97368732E21297395
:1020D000E8722D21A97268722C212972E8712B21D6
:1020E000A97168712A212971E8702921A970687085
:1020F00028700026A85DA919497801242246FEF718
:1021000077FDB61C282EF5D1FFF766F92548007833
:10211000002801D001B0F0BD002704E0674021484D
:1021200000780028F6D121480078002803D1FFF775
:10213000BBFE1E48047000F069F868782A781C4BD2
:1021400059781B785E1CF6B2B24201D1884211D098
:102150005E1EF6B2B24201D188420BD09A4203D140
:102160004E1CF6B2B04205D09A420ED1491EC9B2F9
:1021700088420AD100200D49087070490878401C37
:10218000087009490868A0430860FEF779FB4142DE
:1021900041410F43F907C1D130386A490870BDE7A2
:1021A00090120A40AC06202004188640AD0620207C
:1021B000B505202059002020FFF7F6FDFEF72CFD85
:1021C0000F48FEF717F80124A0040E490860FFF736
:1021D00037FE0D48FEF77DF9FEF758FCFFF742FE8B
:1021E000002501E035436540FEF74AFB4642464183
:1021F000E907F7D14128F5D1FFF72AFFF2E7C046FA
:102200003930000000E100E00090D003F0B583B069
:102210004A4D287840004A4C0019801E41780078C9
:102220000022FEF7E5FC2D78681E010647D0032644
:102230000640A91EC3B2002E1BD05A1E5700E05DF7
:102240000291590060546018E11901914978417078
:102250000299012E084618D09A1E5000215CE155C3
:10226000211800914978019F7970022E03D1E81E50
:102270000AE01A4609E0DA1E5100635C2354601834
:10228000407800994870281F0299C9B2032916D3D3
:10229000510009190839CA794A728A790A720A7989
:1022A0008B780B714B79CE784E718A71CB710A782D
:1022B0008A704A78CA700839001F0206EBD121489B
:1022C000017808291AD8FF207944097949008F44F8
:1022D000041512150415071511002078401E01E0A1
:1022E0002078401C207001060CD0C0B27F280CD38F
:1022F000012008E00120617808186070104800781B
:102300000106F2D17E200E4908706078002803D0C3
:102310003F2804D3012000E03E2009494870002DE9
:1023200007D0617820780122FEF762FCA41C6D1EA4
:10233000F7D1FFF751F803B0F0BDC0465900202097
:10234000AE062020B40520200000000000000000A0
:102350000000000000000000000000F80000000085
:10236000000000333000000000100C06100C0600C6
:10237000000000000000000040C07840C07840002D
:10238000043F04043F040400007088FC083000008F
:10239000001820FF211E0000F008F000E0180000E7
:1023A00000211C031E211E0000F0088870000000A0
:1023B0001E2123241927211010160E0000000000F2
:1023C0000000000000000000000000E0180402000F
:1023D000000000071820400000020418E000000080
:1023E0000040201807000000404080F0804040007E
:1023F0000202010F01020200000000F000000000D4
:102400000101011F010101000000000000000000A7
:1024100080B070000000000000000000000000001C
:1024200000010101010101010000000000000000A5
:102430000030300000000000000000008060180440
:10244000006018060100000000E010080810E0001D
:10245000000F102020100F00001010F800000000E6
:102460000020203F2020000000700808088870002D
:1024700000302824222130000030088888483000AD
:102480000018202020110E000000C02010F80000CD
:1024900000070424243F240000F808888808080066
:1024A0000019212020110E0000E01088881800007B
:1024B000000F112020110E0000380808C83808004D
:1024C0000000003F000000000070880808887000CD
:1024D000001C222121221C0000E010080810E0004E
:1024E0000000312222110F00000000C0C0000000D7
:1024F00000000030300000000000008000000000FC
:1025000000008060000000000000804020100800F3
:1025100000010204081020004040404040404000BC
:102520000404040404040400000810204080000097
:102530000020100804020100007048080808F0009C
:102540000000003036010000C030C828E810E0006C
:102550000718272423140B000000C038E0000000F7
:10256000203C23020227382008F888888870000061
:10257000203F202020110E00C03008080808380035
:10258000071820202010080008F808080810E000AC
:10259000203F202020100F0008F88888E80810004D
:1025A000203F20202320180008F88888E808100021
:1025B000203F200003000000C03008080838000059
:1025C00007182020221E020008F808000008F8085A
:1025D000203F210101213F20000808F808080000E1
:1025E0000020203F2020000000000808F808080014
:1025F000C08080807F00000008F888C0281808008C
:10260000203F20012638200008F8080000000000C4
:10261000203F20202020300008F8F800F8F80800BB
:10262000203F003F003F200008F830C00008F808B5
:10263000203F200007183F00E01008080810E000C5
:102640000F10202020100F0008F808080808F000DC
:10265000203F210101010000E01008080810E000FF
:102660000F18242438504F0008F888888888700094
:10267000203F2000030C3020007088080808380034
:102680000038202121221C00180808F8080818002A
:102690000000203F2000000008F808000008F808AB
:1026A000001F202020201F000878880000C838085C
:1026B000000007380E010000F80800F80008F800D4
:1026C000033C0700073C030008186880806818086E
:1026D00020302C03032C30200838C800C8380800EC
:1026E0000000203F2000000010080808C83808003B
:1026F0002038262120201800000000FE02020200DF
:102700000000007F40404000000C30C0000000008E
:10271000000000010638C00000020202FE000000B6
:10272000004040407F00000000000402020204005C
:102730000000000000000000000000000000000099
:102740008080808080808080000202040000000081
:102750000000000000000000000080808080000079
:102760000019242222223F2008F800808000000067
:10277000003F112020110E0000000080808000002A
:10278000000E112020201100000000808088F80039
:10279000000E112020103F2000008080808000006B
:1027A000001F222222221300008080F088888818CF
:1027B0000020203F202000000000808080808000DA
:1027C000006B94949493600008F80080808000006F
:1027D000203F210000203F2000809898000000004A
:1027E0000020203F2020000000000080989800007A
:1027F00000C08080807F000008F80000808080009A
:10280000203F24022D302000000808F800000000BE
:102810000020203F20200000808080808080800079
:10282000203F20003F20003F80800080808000000B
:10283000203F210000203F20000080808080000099
:10284000001F202020201F008080008080000000CA
:1028500080FFA12020110E000000008080808000F9
:10286000000E112020A0FF808080800080808000EA
:1028700020203F2120000100000080808080800017
:102880000033242424241900008080E0808000008C
:102890000000001F202000008080000000808000D9
:1028A000001F202020103F2080808000008080803A
:1028B00000010E30080601008080008000808080CA
:1028C0000F300C030C300F000080800080808000EF
:1028D0000020312E0E31200080808000008080801A
:1028E00080818E70180601000080808080808000CA
:1028F0000021302C2221300000000000807C0202E8
:1029000000000000003F404000000000FF00000009
:1029100000000000FF0000000002027C80000000B8
:102920000040403F00000000FFFFFFFFFFFFFFFFF0
:10293000FFFFFFFFFFFFFFFF707EFEFEFEFEFEFEBD
:10294000FEFEFEFEFEFE78300000000000000000EB
:102950000000000000000000041E1E1A7B7BDBDF6D
:10296000DDDF7B7A3E16040400000000000000005A
:10297000000000000000000080C4FCFCFCFCFCFE29
:10298000FEFCFCFCFCFCC400000000000000000099
:10299000000000000000000083839F9FBFF7F7B78F
:1029A000B7F7F7BF9F9F8300000000000000000002
:1029B0000000000000000000487C7CFCFCFCFCFCEB
:1029C000FC7CFEFE0E1E1C0000000000000000004B
:1029D00000000000000000008080DFDF617F3F61B9
:1029E0007FDFDFBFFFE0F00000000000000000001C
:1029F0000000000000000000808080B0B8BCFEF63F
:102A0000B0B0BCBCB8F0E000000000000000000066
:102A1000000000000000000088988CBCB6B7B7B476
:102A2000B4B7B7B6BC8C98000000000000000000EE
:102A3000000000000000000000FCFCB4B4B4246CF2
:102A40006CFEFEFE6CFCF8000000000000000000C0
:102A50000000000000000000C4F7FFDD5575F5FD23
:102A60003DFFFFFF3D3D350000000000000000007D
:102A7000000000000000000000C0FEFE868484F418
:102A8000FCBC84848484040000000000000000007A
:102A900000000000000000000303FFFFC0C0F0FFC3
:102AA000FFC0C0C0FFFFC000000000000000000029
:102AB0000000000000000000F8FCFCFCFC9C989862
:102AC00098FEFE989898900000000000000000001A
:102AD0000000000000000000FFFFFF1B1F7FFFC180
:102AE000C1FFFFC1FFFF7F000000000000000000E9
:102AF0000000000000000000101236BEECD850109C
:102B0000FEFE181818D8D8000000000000000000D1
:102B1000000000000000000082C7C76564341CFE8E
:102B2000FF1D356565C5C500000000000000000000
:102B300000000000000000001030FEFE30FCFCC46D
:102B4000C4FCFCF8FCFCFC000000000000000000DD
:102B50000000000000000000C484FFFFC3F3FFDF9B
:102B600082FEFEBFBFFFFF0000000000000000006B
:102B70000000000000000000008C8CFCFC8C08E0D1
:102B8000FE3E1AD8F87000000000000000000000AF
:102B900000000000000000004141617F3FB1DBFB0D
:102BA00070381E071F7CF0000000000000000000CD
:102BB000000000000000000000FCFEF6F6D6D6DEA5
:102BC000DEDED6D6D6F6F6000000000000000000DB
:102BD0000000000000000000E0FFFFE377BE9E86DB
:102BE000FEFE061E3EF7E3000000000000000000AD
:102BF00000000000000000001010169EFCF0F0F82D
:102C00009898FEFE98F8F000000000000000000018
:102C100000000000000000000C0EFFFFFF071F1F58
:102C20001111FFFF111F1F00000000000000000035
:102C3000000000000000000000F8F8C8C8C8CECEB0
:102C4000CCC8C8C8F8F87000000000000000000000
:102C50000000000000000000E0FF3FFEFE828282D4
:102C60008282828282FEFE000000000000000000DE
:102C700000000000000000008088989898989888CC
:102C8000B030FEFE3030F0E0000000000000000038
:102C9000000000000000000000607C7F676C7CF892
:102CA000E0FCBF8780E0FF3F000000000000000064
:102CB0000000000000000000000000000000000014
:102CC0000000000000000000000000000000000004
:102CD000000000000000000000F0F0F060000000C4
:102CE00000000000000000000000000000000000E4
:102CF00000000000000000000000000000000000D4
:102D000000000000000000000000000000000000C3
:102D100000000000000000003078C8C878300000D3
:102D200000000000000000000000000000000000A3
:102D30000000000000000000000000F8F8F80000AB
:102D40000000000000000000000000000000000083
:102D500000000000000000000000006F6F6F000026
:102D60000000000000000000000000000000000063
:102D70000000000000000000000000000070785813
:102D8000B8F8F04000000000000000000000000063
:102D90000000000000000000000000000000006EC5
:102DA0006F63010000000000000000000000000050
:102DB0000000000000000000000000000000000013
:102DC0000000F8F8181818000000000000000000CB
:102DD00000000000000000000000000000000000F3
:102DE00000007F3F00000000000000000000000025
:102DF000000000000000000000000000F0F8F800F3
:102E000000000000000000000000000000000000C2
:102E10000000000000000000002060607F7F3F0095
:102E200000000000000000000000000000000000A2
:102E30000000000000000000082848890E8878087B
:102E40000800F80000FF0000000000000000000083
:102E5000000000000000000040201009061960007A
:102E600000000F40807F0000000000000000000014
:102E70000000000000000000101010FF1090FE8203
:102E800092929292928200000000000000000000E6
:102E900000000000000000000444827F81601F00E9
:102EA000FF8047182442800000000000000000005E
:102EB0000000000000000000100C2424242425E65B
:102EC0002424242424140C0000000000000000002E
:102ED0000000000000000000020202020242827FA5
:102EE00002020202020202000000000000000000D4
:102EF000000000000000000000F800007F5555555C
:102F000055557F0000F800000000000000000000A0
:102F100000000000000000008849390909FF000096
:102F200000FF090909F9000000000000000000008E
:102F30000000000000000000048484FC848400FE83
:102F40009292929292FE00000000000000000000A9
:102F500000000000000000002060201F101000FE94
:102F60004424007E8884E20000000000000000008D
:102F70000000000000000000108C8484848485F62A
:102F80008484848484940C0000000000000000000D
:102F9000000000000000000020201008040201FFD3
:102FA00001020408102020000000000000000000C2
:102FB00000000000000000008484FC84840004FF02
:102FC00024242424FF04000000000000000000006E
:102FD000000000000000000010301F080800884FAB
:102FE000290909294F88080000000000000000009E
:102FF0000000000000000000008080406050585633
:10300000C848102020400000000000000000000020
:10301000000000000000000000000000805F211F91
:1030200020316F40000000000000000000000000A0
:10303000000000000000000000E02020F020006000
:1030400010AEA01010000000000000000000000002
:103050000000000000000000000001010100001954
:1030600027214040602038000000000000000000E0
:103070000000000000000000008080A458C04080D4
:1030800060242C20603020000000000000000000C0
:103090000000000000000000001013170A090C00D7
:1030A0001F25222121203000000000000000000028
:1030B00000000000000000000000000000F0909000
:1030C0009454681800000000000000000000000098
:1030D00000000000000000000000201806013C2451
:1030E0002424243E04000000000000000000000032
:1030F0000000000000000000008080809090904060
:103100004040FC2420E0000000000000000000001F
:1031100000000000000000000000080E054422141A
:103120000C0320201C030000000000000000000031
:103130000000000000000000008080808090F8887F
:1031400088F888884040000000000000000000006F
:103150000000000000000000000000201807000030
:10316000003F000000000000000000000000000020
:10317000000000000000000000000000F488C00013
:10318000C0B08C8060C000000000000000000000A3
:10319000000000000000000000012123150E1100B6
:1031A0001C2424241C040000000000000000000077
:1031B0000000000000000000000040084840C42853
:1031C00020205ED0504800000000000000000000F9
:1031D000000000000000000000080E0A04031807A9
:1031E0000404427F02020200000000000000000010
:1031F00000000000000000000000002020E000802F
:10320000BCC04088880000000000000000000000F2
:103210000000000000000000000008050302141078
:1032200008050E1120607000000000000000000082
:10323000000000000000000000004040FCA02060F2
:1032400040A4282030200000000000000000000002
:103250000000000000000000000804223F020222DB
:1032600026190E13312101000000000000000000AB
:103270000000000000000000080004000000000042
:103280000710000001000000000000000000000026
:10329000000000000000000010000000000100001D
:1032A00003000000000000003400C4410407630074
:1032B000000000004FC300000000000000000000FC
:1032C0000000000000000000E832000000002020A4
:1032D0006000000020010000483300006000202052
:1032E0001827000048010000000000000000000056
:1032F00000000000000000000000000000000000CE
:1033000000000000000000000000000000000000BD
:1033100000000000000000000000000000000000AD
:10332000000000000000000000000000000020205D
:10333000003132334134353642373839432A30236D
:0833400044140000000000002D
:04000005000000C136
:00000001FF
