:020000040000FA
:1000000078272020C9010000CD010000CF010000A9
:1000100000000000000000000000000000000000E0
:10002000000000000000000000000000D1010000FE
:100030000000000000000000D3010000D501000016
:10004000D7010000D7010000D7010000D701000050
:10005000D7010000D7010000D7010000D701000040
:10006000D7010000D7010000D7010000D701000030
:10007000D7010000D7010000D7010000D701000020
:10008000D7010000D701000085220000D701000041
:10009000D7010000D7010000D7010000D701000000
:1000A000D7010000D7010000D7010000D7010000F0
:1000B000D7010000D7010000D7010000D7010000E0
:1000C00000F002F800F054F812A030C808382418E4
:1000D0002D18AC4201D100F04BF80FCCA246AB4634
:1000E0000CA730CF2D1B083F3F197C427F1E544484
:1000F0002D090426F441641EAC4201D300F038F807
:100100000126334200D0FB1A3343984754465D46DC
:10011000DFE70000843F0000A43F00000000000073
:10012000103A02D378C878C1FAD8520701D330C840
:1001300030C101D504680C60704700000000000069
:100140007047000000000000002300240025002666
:10015000103A01D378C1FBD8520700D330C100D583
:100160000B6070471FB500F05BF81FBD10B510BDE8
:1001700000F07DF91146FFF7F5FF02F053FA00F0A9
:1001800095F903B4FFF7F2FF03BC00F09BF9000000
:1001900030B40C490C684A6823681068C0181060B5
:1001A000241D121D8C4207D28A4208D20C604A607C
:1001B00030BC4000400870470C00DC3CF6E70A0009
:1001C000DC3AF3E73C01202006480047FEE7FEE763
:1001D000FEE7FEE7FEE7FEE703480449024A044B58
:1001E00070470000C10000007807202078272020F9
:1001F000780720200B4A30B511460B4C60310B4676
:10020000DC3B0CC1372106E0020C8D0012185A515C
:10021000064A504300190A46491E002AF4DC30BD44
:100220000120E7E7DC002020E119D666CD0D0100B2
:1002300001E004C0091F0429FBD28B0701D502800D
:10024000801CC90700D00270704700290BD0C3077B
:1002500002D00270401C491E022904D3830702D534
:100260000280801C891EE3E70022EEE70022DFE720
:10027000002203098B4273D3030A8B4258D3030B2A
:100280008B423CD3030C8B4221D312E003460B4339
:100290007FD4002243088B4274D303098B425FD37F
:1002A000030A8B4244D3030B8B4228D3030C8B42AB
:1002B0000DD30902FF2212BA030C8B4202D3121291
:1002C000090265D0030B8B4219D300E0090AC30B66
:1002D0008B4201D3CB03C01A5241830B8B4201D313
:1002E0008B03C01A5241430B8B4201D34B03C01AFC
:1002F0005241030B8B4201D30B03C01A5241C30A74
:100300008B4201D3CB02C01A5241830A8B4201D3E4
:100310008B02C01A5241430A8B4201D34B02C01ACE
:100320005241030A8B4201D30B02C01A5241CDD273
:10033000C3098B4201D3CB01C01A524183098B42BE
:1003400001D38B01C01A524143098B4201D34B01A7
:10035000C01A524103098B4201D30B01C01A52410A
:10036000C3088B4201D3CB00C01A524183088B4291
:1003700001D38B00C01A524143088B4201D34B007A
:10038000C01A5241411A00D20146524110467047EC
:100390005DE0CA0F00D04942031000D340425340F1
:1003A0009C46002203098B422DD3030A8B4212D3B1
:1003B0008901FC2212BA030A8B420CD389019211E3
:1003C0008B4208D3890192118B4204D389013AD020
:1003D000921100E08909C3098B4201D3CB01C01AF5
:1003E000524183098B4201D38B01C01A5241430908
:1003F0008B4201D34B01C01A524103098B4201D3F6
:100400000B01C01A5241C3088B4201D3CB00C01A62
:10041000524183088B4201D38B00C01A5241D9D27A
:1004200043088B4201D34B00C01A5241411A00D2FB
:1004300001465241104663465B1001D34042002BF7
:1004400000D54942704763465B1000D3404201B576
:100450000449002802DC491C084000E00846C04668
:10046000C04602BDFFFFFF7F70477047704775466B
:1004700000F024F8AE46050069465346C008C000A7
:10048000854618B020B5FFF7A7FE60BCB64600262B
:100490000027C0C5C0C5C0C5C0C5C0C5C0C5C0C592
:1004A000C0C5403D490849008D46704710B5044617
:1004B000C046C0462046FFF764FE10BD00487047A6
:1004C0004401202001491820ABBEFEE726000200AF
:1004D0007047811E091F00BFFCD2704712490A688D
:1004E000124802604A6842608A688260CA68C260D4
:1004F0000A6902614A6942618A698261CA69C261A4
:100500000A6A02624A6A42628A6A8262CA6AC2628B
:100510000A6B02634A6B42638A6B8263C96B7B4AD4
:100520000264C1637047C0460000C441000020203F
:10053000B0B51122120283580C4C1C400B894D8817
:100540001D438B792B430A4D1D4063198350CB7992
:100550008C881C43097821435D239B001940801837
:1005600042689A4351184160B0BDC04680CCFFFF3D
:100570007F33000010B50122120383180C785C60F1
:100580004978815010BD0000F0B585B004460125C2
:100590002902394E30680491884330605A48006817
:1005A000006C5A49884201D0FFF798FFA9036C48B4
:1005B00002680A4208D102680A4205D102680A426A
:1005C00002D102680A42F3D0617E2940B269AA438F
:1005D0005118B1612021615C03221140F3699343FA
:1005E0005918F16125490A6805230B60636A1F6881
:1005F00037625B687362072313400B60E1697F22F7
:100600001202F36993434906490C5918F1612768AE
:1006100003956568A1680091E368216901916169AA
:100620000291B269164911403A07120B2D03ADB27F
:10063000AA181A43009B1B071B0D1343019A13436F
:10064000029A1343227E1A430E4B13405918B1618C
:100650003168049A114331600399490202680A42E1
:1006600008D102680A4205D102680A4202D1026832
:100670000A42F3D005B0F0BD08010B400013404022
:100680008D00F0FF72FF0F00F0B581B014460D46EB
:1006900006461D480068006C1C49884201D0FFF7DF
:1006A0001DFF1B480246083A136801218B43136063
:1006B00003231B031E4007689F43BB1903600368A5
:1006C000FF26B343EDB25B19036013680B4313605D
:1006D0000268002C12D00B071A430260080220495E
:1006E0000A68024208D10A68024205D10A68024239
:1006F00002D10A680242F3D001B0F0BD09078A4373
:10070000026001B0F0BDC04644002020FECAFECA0F
:1007100010010B4010B511498860012253051048A3
:1007200004681C4208D104681C4205D104681C42BC
:1007300002D104681C42F3D012040B6813430B600F
:100740000168C90608D40168C90605D40168C9064C
:1007500002D40168C906F3D510BDC04604010B40A0
:1007600004020B40B0B53B4A80184A6842600A78E0
:10077000222A57D8930001A4E3589F461B08000083
:10078000250800001B0800002508000025080000BF
:1007900025080000250800002508000025080000A5
:1007A0002508000025080000250800002508000095
:1007B00025080000250800002508000009080000A1
:1007C0002508000009080000250800002508000091
:1007D0002508000025080000250800002508000065
:1007E0002508000025080000250800002508000055
:1007F0002508000025080000250800000908000061
:10080000250800000908000003231B0704689C4317
:1008100001235B07E318036004E003231B0704685C
:100820009C4304600B69C360CB680B4C1C40C36ADB
:100830000A4D1D402B19C3620368094C1C4004601B
:10084000097A11433F22114003689343591801600C
:10085000B0BDC04604180000777702008888FDFF0D
:100860007F00FFFF10B50122120383180C789C60F3
:100870004B7883508978014A815010BD0C110000DB
:10088000F0B587B07F48402404611920C00103906F
:10089000FFF71FFE012739057B4D2868C002049130
:1008A00005D42868084202D10123002001E000237A
:1008B00038463A062968C901029206D429681142CD
:1008C00003D102210691002101E0069339467B06FF
:1008D0002A689201019306D42A681A4203D103229E
:1008E0000692002200E03A46FE062B681B0104D463
:1008F0002B68334201D1002074E005960840104077
:10090000604804600FD0802404610398FFF7E1FD84
:1009100028680499084208D12868084205D10120B6
:100920000690002002E0002077E03846029A019B02
:100930002968114206D12968114203D1022106918A
:10094000002100E039462A681A4206D12A681A4274
:1009500003D103220692002200E03A462B68059E4E
:10096000334205D12B68059E334201D1042039E082
:1009700008401040EB4804600FD0012634020461A7
:100980000398FFF7A6FD28680499084207D1286854
:10099000084204D10020069602E004203DE03846DB
:1009A000029A019B2968114206D12968114203D19C
:1009B00002210691002100E039462A681A42009679
:1009C00006D12A681A4203D103220692002200E0CF
:1009D0003A462B68059E334208D12B68059E334268
:1009E00004D10820CF490C60042117E008401040D2
:1009F000CC48046010D000994C0204610398FFF7C2
:100A000068FD2868049908420DD1286808420AD177
:100A10000D20069000200AE00820069909181B48BE
:100A2000405C07B0F0BD06980C3006903846029A3C
:100A3000019B2968114206D12968114203D10E2178
:100A40000691002100E039462A681A4205D12A6839
:100A50001A4202D10F22069200272A68059B1A42E9
:100A600006D12A681A4203D1AE4804601021D6E7A5
:100A700008403840AB48046001D10699CFE7002117
:100A8000CDE7C04690320A4080330A40480020201B
:100A9000F0B581B00121080249020022A34BA44C09
:100AA00003E0521C082A00D19CE0186119612568F6
:100AB000ED0608D52568ED0605D52568ED0602D5B5
:100AC0002568ED06F3D41546B03525632568ED0697
:100AD00008D52568ED0605D52568ED0602D52568FB
:100AE000ED06F3D419601860186119612568ED06E8
:100AF00008D52568ED0605D52568ED0602D52568DB
:100B0000ED06F3D4022525632568ED0608D5256892
:100B1000ED0605D52568ED0602D52568ED06F3D46A
:100B200019601860186119612568ED0608D52568F7
:100B3000ED0605D52568ED0602D52568ED06F3D44A
:100B4000102525632568ED0608D52568ED0605D531
:100B50002568ED0602D52568ED06F3D41960186006
:100B6000002505E019601860AD1C6DB2002D98D409
:100B7000186019612668F60608D52668F60605D5B8
:100B80002668F60602D52668F606F3D40026266304
:100B90002768FF0608D52768FF0605D52768FF06E2
:100BA00002D52768FF06F3D4196018601860196130
:100BB0002768FF0608D52768FF0605D52768FF06C2
:100BC00002D52768FF06F3D426632668F606C9D542
:100BD0002668F606C6D52668F606C3D52668F60644
:100BE000F3D4BFE7412001014148FFF73FFB01B0CB
:100BF000F0BDC046F0B588B014460027FA4307910F
:100C00008B420192114600D13946079A9E1A01255E
:100C1000002E009500DC0091844200D1019701462E
:100C2000201A012800DB0195C2175040841A07984A
:100C3000834201D1384600E06042002E0A4600DCC3
:100C40000646B4420294234600DC334604960D98CF
:100C5000039039463D4603E07F1CB8B2834232D34D
:100C600005950691072007990840012585401646FD
:100C7000D0B2C0001E4A14180806C20EA05C039928
:100C8000002901D0284300E0A843A0540498069905
:100C90000D189D4203DD07980099401807903246D1
:100CA000029805990C189C4204DCE91A06DDE51A45
:100CB000D2DC06E001981218E91AF8DC2946E51A98
:100CC000CADC2546C8E708B0F0BDC04610B5072409
:100CD0000C400123A340C000054C2018C908445C07
:100CE000002A02D01C43445410BD9C43445410BD00
:100CF000A4012020F0B583B00127FD05094E356021
:100D0000094C2046FFF7E5FB35612046FFF7E1FB84
:100D100035603C02054D2C6102977E022E61044F26
:100D200008E0C04690320A4000127A0090520A4011
:100D3000109146403868C00608D53868C00605D509
:100D40003868C00602D53868C006F3D4AE203863D0
:100D50003868C00608D53868C00605D53868C006AA
:100D600002D53868C006F3D42E602C602C612E6149
:100D70003868C00608D53868C00605D53868C0068A
:100D800002D53868C006F3D4022038633968C90632
:100D900008D53968C90605D53968C90602D5396844
:100DA000C906F3D42E602C602C612E613968C90607
:100DB00008D53968C90605D53968C90602D5396824
:100DC000C906F3D41021019139633968C90608D5E1
:100DD0003968C90605D53968C90602D53968C90612
:100DE000F3D42E602C602C612E613968C90608D5B9
:100DF0003968C90605D53968C90602D53968C906F2
:100E0000F3D440223A633968C90608D53968C9065F
:100E100005D53968C90602D53968C906F3D42E60EC
:100E20002C602C612E613968C90608D53968C9065D
:100E300005D53968C90602D53968C906F3D48121B8
:100E400039633968C90608D53968C90605D53968CE
:100E5000C90602D53968C906F3D42E602C602C610E
:100E60002E613968C90608D53968C90605D53968BB
:100E7000C90602D53968C906F3D4CF213963396868
:100E8000C90608D53968C90605D53968C90602D525
:100E90003968C906F3D42E602C602C612E61396844
:100EA000C90608D53968C90605D53968C90602D505
:100EB0003968C906F3D4A12139633968C90608D550
:100EC0003968C90605D53968C90602D53968C90621
:100ED000F3D42E602C602C612E613968C90608D5C8
:100EE0003968C90605D53968C90602D53968C90601
:100EF000F3D4C82139633968C90608D53968C906E9
:100F000005D53968C90602D53968C906F3D42E60FB
:100F10002C602C612E613968C90608D53968C9066C
:100F200005D53968C90602D53968C906F3D4A621A2
:100F300039633B68DB0608D53B68DB0605D53B68B3
:100F4000DB0602D53B68DB06F3D42E602C602C61F7
:100F50002E613B68DB0608D53B68DB0605D53B68A0
:100F6000DB0602D53B68DB06F3D4A8233B633B6872
:100F7000DB0608D53B68DB0605D53B68DB0602D5FA
:100F80003B68DB06F3D42E602C602C612E613B683D
:100F9000DB0608D53B68DB0605D53B68DB0602D5DA
:100FA0003B68DB06F3D43F233B633B68DB0608D595
:100FB0003B68DB0605D53B68DB0602D53B68DB06F4
:100FC000F3D42E602C602C612E613B68DB0608D5C3
:100FD0003B68DB0605D53B68DB0602D53B68DB06D4
:100FE000F3D4D3233B633B68DB0608D53B68DB06C1
:100FF00005D53B68DB0602D53B68DB06F3D42E60E3
:101000002C602C612E613B68DB0608D53B68DB0653
:1010100005D53B68DB0602D53B68DB06F3D400232D
:101020003B633B68DB0608D53B68DB0605D53B68C0
:10103000DB0602D53B68DB06F3D42E602C602C6106
:101040002E613B68DB0608D53B68DB0605D53B68AF
:10105000DB0602D53B68DB06F3D4D5233B633B6854
:10106000DB0608D53B68DB0605D53B68DB0602D509
:101070003B68DB06F3D42E602C602C612E613B684C
:10108000DB0608D53B68DB0605D53B68DB0602D5E9
:101090003B68DB06F3D480233B633B68DB0608D563
:1010A0003B68DB0605D53B68DB0602D53B68DB0603
:1010B000F3D42E602C602C612E613B68DB0608D5D2
:1010C0003B68DB0605D53B68DB0602D53B68DB06E3
:1010D000F3D4D9233B633B68DB0608D53B68DB06CA
:1010E00005D53B68DB0602D53B68DB06F3D42E60F2
:1010F0002C602C612E613B68DB0608D53B68DB0663
:1011000005D53B68DB0602D53B68DB06F3D4F1234B
:101110003B633B68DB0608D53B68DB0605D53B68CF
:10112000DB0602D53B68DB06F3D42E602C602C6115
:101130002E613B68DB0608D53B68DB0605D53B68BE
:10114000DB0602D53B68DB06F3D4DA233B633B685E
:10115000DB0608D53B68DB0605D53B68DB0602D518
:101160003B68DB06F3D42E602C602C612E613B685B
:10117000DB0608D53B68DB0605D53B68DB0602D5F8
:101180003B68DB06F3D412233B633B68DB0608D5E0
:101190003B68DB0605D53B68DB0602D53B68DB0612
:1011A000F3D42E602C602C612E613B68DB0608D5E1
:1011B0003B68DB0605D53B68DB0602D53B68DB06F2
:1011C000F3D4DB233B633B68DB0608D53B68DB06D7
:1011D00005D53B68DB0602D53B68DB06F3D42E6001
:1011E0002C602C612E613B68DB0608D53B68DB0672
:1011F00005D53B68DB0602D53B68DB06F3D43A63D2
:101200003A68D20608D53A68D20605D53A68D206B9
:1012100002D53A68D206F3D42E602C602C612E6180
:101220003A68D20608D53A68D20605D53A68D20699
:1012300002D53A68D206F3D420223A633A68D2063D
:1012400008D53A68D20605D53A68D20602D53A687A
:10125000D206F3D42E602C602C612E613A68D2063F
:1012600008D53A68D20605D53A68D20602D53A685A
:10127000D206F3D438633868C00608D53868C0068B
:1012800005D53868C00602D53868C006F3D42E608C
:101290002C602C612E613868C00608D53868C006FD
:1012A00005D53868C00602D53868C006F3D48D204D
:1012B00038633868C00608D53868C00605D5386870
:1012C000C00602D53868C006F3D42E602C602C61AD
:1012D0002E613868C00608D53868C00605D538685C
:1012E000C00602D53868C006F3D4142038633868C5
:1012F000C00608D53868C00605D53868C00602D5CE
:101300003868C006F3D42E602C602C612E613868DA
:10131000C00608D53868C00605D53868C00602D5AD
:101320003868C006F3D4A42038633868C00608D5EE
:101330003868C00605D53868C00602D53868C006CA
:10134000F3D42E602C602C612E613868C00608D55D
:101350003868C00605D53868C00602D53868C006AA
:10136000F3D439633868C00608D53868C00605D597
:101370003868C00602D53868C006F3D42E602C60E9
:101380002C612E613868C00608D53868C00605D5BE
:101390003868C00602D53868C006F3D4AF20386379
:1013A0003968C90608D53968C90605D53968C90636
:1013B00002D53968C906F3D42E602C602C612E61E9
:1013C0003968C90608D53968C90605D53968C90616
:1013D00002D53968C906F3D438633868C00608D521
:1013E0003868C00605D53868C00602D53868C0061A
:1013F000F3D42E602C60FFF74BFB2C612E61386814
:10140000C00608D53868C00605D53868C00602D5BC
:101410003868C006F3D4B02038633868C00608D5F1
:101420003868C00605D53868C00602D53868C006D9
:10143000F3D42E602C602C612E613868C00608D56C
:101440003868C00605D53868C00602D53868C006B9
:10145000F3D4019838633868C00608D53868C006E8
:1014600005D53868C00602D53868C006F3D42E60AA
:101470002C602C612E613868C00608D53868C0061B
:1014800005D53868C00602D53868C006F3D402987E
:1014900038633868C00608D53868C00605D538688E
:1014A000C00602D53868C006F3D42E602C6003B0A5
:1014B000F0BD0000F0B583B0012001024202002718
:1014C0006B4B6C4D6C4C019100920AE06748FFF742
:1014D00000F8009A664B1A607F1C082F019900D112
:1014E000C1E019611A612868C00608D52868C006DD
:1014F00005D52868C00602D52868C006F3D438464A
:10150000B03028632868C00608D52868C00605D50D
:101510002868C00602D52868C006F3D41A6019608E
:1015200019611A612868C00608D52868C00605D563
:101530002868C00602D52868C006F3D400262E63AA
:101540002868C00608D52868C00605D52868C006E2
:1015500002D52868C006F3D41A60196019611A61AF
:101560002868C00608D52868C00605D52868C006C2
:1015700002D52868C006F3D410200290286328689A
:10158000C00608D52868C00605D52868C00602D55B
:101590002868C006F3D41A6019601A613348FEF750
:1015A00098FF2868C00608D52868C00605D52868B1
:1015B000C00602D52868C006F3D4029A2868C0067F
:1015C0000DD52868C0060AD52868C00607D5286842
:1015D000C006F3D403E0361D802E00D176E7F0007C
:1015E0002118C95D29632968C90608D52968C90673
:1015F00005D52968C90602D52968C906F3D408218A
:1016000001436118C95D29632968C90608D529689D
:10161000C90605D52968C90602D52968C906F3D4C3
:10162000014611436118C95D29632968C90608D5B7
:101630002968C90605D52968C90602D52968C906D9
:10164000F3D4182108432018C05D28632868C00619
:10165000C1D52868C006BED52868C006BBD5286895
:10166000C006F3D4B7E703B0F0BDC046801A060049
:1016700090520A4010914640A4012020F0B585B058
:10168000029101210C02F94D2C6103914E022E6151
:10169000F74F3968C90608D53968C90605D53968CC
:1016A000C90602D53968C906F3D402995039C9B2BE
:1016B00039633968C90608D53968C90605D5396856
:1016C000C90602D53968C906F3D42E602C602C6196
:1016D0002E613968C90608D53968C90605D5396843
:1016E000C90602D53968C906F3D401091031019140
:1016F00039633968C90608D53968C90605D5396816
:10170000C90602D53968C906F3D42E602C602C6155
:101710002E613968C90608D53968C90605D5396802
:10172000C90602D53968C906F3D40E210840401C09
:10173000009038633868C00608D53868C00605D5FB
:101740003868C00602D53868C006F3D42E602C6015
:1017500050000490002104E02E602C60891C1029A8
:1017600041D02C602E610498420174488218535C69
:101770003868C00608D53868C00605D53868C00680
:1017800002D53868C006F3D43B633868C00608D574
:101790003868C00605D53868C00602D53868C00666
:1017A000F3D42E602C602C602E610846039B1843F6
:1017B000125C3868C00608D53868C00605D5386898
:1017C000C00602D53868C006F3D43A633868C0064C
:1017D000C2D53868C006BFD53868C006BCD53868E1
:1017E000C006F3D4B8E72C612E613868C00608D56E
:1017F0003868C00605D53868C00602D53868C00606
:10180000F3D402984F38C0B238633868C00608D5A0
:101810003868C00605D53868C00602D53868C006E5
:10182000F3D42E602C602C612E613868C00608D578
:101830003868C00605D53868C00602D53868C006C5
:10184000F3D4019838633868C00608D53868C006F4
:1018500005D53868C00602D53868C006F3D42E60B6
:101860002C602C612E613868C00608D53868C00627
:1018700005D53868C00602D53868C006F3D400988C
:1018800038633868C00608D53868C00605D538689A
:10189000C00602D53868C006F3D42E602C600398C9
:1018A000049901430491002104E02E602C60891CFE
:1018B000102941D02C602E61049840011F4A121853
:1018C000535C3868C00608D53868C00605D5386846
:1018D000C00602D53868C006F3D43B633868C0063A
:1018E00008D53868C00605D53868C00602D53868FE
:1018F000C006F3D42E602C602C602E610846039B3A
:101900001843125C3868C00608D53868C00605D58B
:101910003868C00602D53868C006F3D43A63386820
:10192000C006C2D53868C006BFD53868C006BCD569
:101930003868C006F3D4B8E705B0F0BD56350000EE
:10194000F0B581B001231C02484D2C615E022E616E
:10195000474F00913B68DB0608D53B68DB0605D5A1
:101960003B68DB0602D53B68DB06F3D45039C9B2CD
:1019700039633968C90608D53968C90605D5396893
:10198000C90602D53968C906F3D42E602C602C61D3
:101990002E613968C90608D53968C90605D5396880
:1019A000C90602D53968C906F3D401091031396373
:1019B0003968C90608D53968C90605D53968C90620
:1019C00002D53968C906F3D42E602C602C612E61D3
:1019D0003968C90608D53968C90605D53968C90600
:1019E00002D53968C906F3D40E210140491C396378
:1019F0003968C90608D53968C90605D53968C906E0
:101A000002D53968C906F3D42E602C6041B2002992
:101A100029D4C100E44B59181201164CA35C009D57
:101A20004B557F281FD0009BC918A21853780B7202
:101A30007D2818D893780B7415D0D3780B767B2833
:101A400011D8137920240B557B280CD053792824E6
:101A50000B55792807D8937930240B55792802D073
:101A6000D0793822885401B0F0BDC04690520A4067
:101A700010914640963F0000F0B585B001231C024E
:101A8000B24D2C6104935E022E61830902271F4030
:101A90007F18AF490B68DB0608D50B68DB0605D558
:101AA0000B68DB0602D50B68DB06F3D43B46503BE4
:101AB000DBB20B63203A00920B68DB0608D50B689B
:101AC000DB0605D50B68DB0602D50B68DB06F3D415
:101AD0003A462E602C602C612E610B68DB0608D51F
:101AE0000B68DB0605D50B68DB0602D50B68DB0649
:101AF000F3D440B2C3179843030910271F4302973A
:101B00000F630B68DB0608D50B68DB0605D50B6891
:101B1000DB0602D50B68DB06F3D42E602C602C614B
:101B20002E610B68DB0608D50B68DB0605D50B6854
:101B3000DB0602D50B68DB06F3D403920E231840B4
:101B4000401C019008630868C00608D50868C006F4
:101B500005D50868C00602D50868C006F3D42E6013
:101B60002C600098C0B20001002704E02E602C60B9
:101B7000BF1C082F41D02C602E61C319754AD35C5D
:101B80000A68D20608D50A68D20605D50A68D206C0
:101B900002D50A68D206F3D40B630A68D20608D5C8
:101BA0000A68D20605D50A68D20602D50A68D206A6
:101BB000F3D42E602C602C602E613A46049B1A43AD
:101BC0008218644B9B5C0A68D20608D50A68D20664
:101BD00005D50A68D20602D50A68D206F3D40B638B
:101BE0000A68D206C2D50A68D206BFD50A68D206EC
:101BF000BCD50A68D206F3D4B8E72C612E610A6816
:101C0000D20608D50A68D20605D50A68D20602D5DA
:101C10000A68D206F3D4039A4F3AD2B20A630A682A
:101C2000D20608D50A68D20605D50A68D20602D5BA
:101C30000A68D206F3D42E602C602C612E610A68EB
:101C4000D20608D50A68D20605D50A68D20602D59A
:101C50000A68D206F3D4029A0A630A68D20608D543
:101C60000A68D20605D50A68D20602D50A68D206E5
:101C7000F3D42E602C602C612E610A68D20608D540
:101C80000A68D20605D50A68D20602D50A68D206C5
:101C9000F3D4019A0A630A68D20608D50A68D20604
:101CA00005D50A68D20602D50A68D206F3D42E609A
:101CB0002C6008221043002704E02E602C60BF1C1B
:101CC000082F41D02C602E61C219224B9B5C0A6800
:101CD000D20608D50A68D20605D50A68D20602D50A
:101CE0000A68D206F3D40B630A68D20608D50A68DC
:101CF000D20605D50A68D20602D50A68D206F3D400
:101D00002E602C602C602E613A46049B1A43821888
:101D1000104B9B5C0A68D20608D50A68D20605D526
:101D20000A68D20602D50A68D206F3D40B630A68A1
:101D3000D206C2D50A68D206BFD50A68D206BCD57B
:101D40000A68D206F3D4B8E705B0F0BD90520A4055
:101D500010914640662F0000B0B5072923D843B242
:101D6000002B20D4203AD4B2C200884B9A18062304
:101D70006343874CE55C55547F2814D05118E21812
:101D800053780B727D280ED893780B740BD0D378D0
:101D90000B767B2807D8137920240B557B2802D09B
:101DA000507928228854B0BDA4012020F0B58BB012
:101DB000089209910590002B00D1E2E0109806905E
:101DC000400801905842991E0291591E0491002525
:101DD000C0B207906E4C6C4F0A952E460393FF20BD
:101DE000B0430799884201D1012121E0E843C0189E
:101DF0000299491BC9B2032901D2012108E0FC2242
:101E000002400023012179431B1DDCB29442FAD128
:101E100003221040039B5E4C0AD0012801D10A2006
:101E200005E0022802D07D20C00000E0642041438C
:101E30001F46089800F088FE0A21FEF719FA0A9852
:101E4000002806D10498A84203DD002934D00120DF
:101E50000A90069808281CD10998072825D8062238
:101E600010466843059BC01843B2002B1DD41023B5
:101E70001943C0B20090C3002046444CE3184A43C3
:101E8000815C099C19552146009C7F2C5ED1404CF9
:101E90000BE030200143CAB2284601994843059916
:101EA0004018C0B20999FFF7E7FD3B46364F761C54
:101EB0006D1C9D4293D164E00698082839D100201A
:101EC0000A9009980728F0D8062068430599401819
:101ED00041B200293B462C4FE9D4C4B2E1002B4A61
:101EE00051180020099A0A90885400947F2C284C9D
:101EF000DDD0099A891800200A90087200987D2880
:101F0000D5D800200A90087400987D28CFD00020F2
:101F10000A90087600987B28C9D8202200200A90D1
:101F2000885400987B28C2D0282000220A920A54A4
:101F3000BDE728460199484305994018C0B22022C0
:101F40000999FFF799FD00200A90AEE7591810484B
:101F5000821853780B727D2C0446A6D893780B74A4
:101F6000A3D0D3780B7600987B289ED813792024B1
:101F70000B557B2802D0507928228854039B044CAF
:101F800094E70BB0F0BDC04610270000A40120204C
:101F90003E2D000070B532480146103900220A601B
:101FA00001460C390A608B21816041602D492E4C1D
:101FB0000C650A6D0A652D4BC36303648365436634
:101FC0004B624B648B64CB64294D2B6081226A6029
:101FD00043628362C36203630C600E680E600C612F
:101FE0000E690E610C620E6A0E628C628C6A8C62E3
:101FF000CA60AA60EB601F4B036004680460436121
:10200000436943618261026542650266081F02609E
:102010008A60194819490161092189030160184939
:1020200001641848184901611D218906016017499A
:1020300001640120C00716490A6802430A60154975
:102040000A6A02430A620A6802430A600320000225
:1020500011490861C0220A60C030086470BDC046E2
:1020600038804240C080424081000E008100020062
:102070005081424081000C0090120A400032410021
:102080000072430090320A40C033C000C033C074B5
:10209000A0330A4028300A4090520A4010B50D4C37
:1020A0000D492046FEF766FA0C492046FEF740FA35
:1020B0000B4841680B4A0A40D11C416081681222DA
:1020C0000A432D218A438260016801220A4302608B
:1020D00010BDC04600804640464000004840000019
:1020E0000491464000FCFFFFF0B581B01F4800247A
:1020F00004600F2630021E4D2968814301277802B3
:102100000090081828600320C1432A1F13680B4061
:1021100013606968B943696039026A688A436A6012
:1021200000030A212246FEF7AFFA1248FEF72CFA06
:1021300029681020014320229143296031036A6BF2
:102140008A43092109035118696339032A680A433C
:102150002A60A96B0143A963686B0099084368630F
:102160002046FEF7D7FA01B0F0BDC04608030B4089
:1021700004010B405440000010B5084C08492046AB
:10218000FEF770FB07492046FEF7ECFA06480168A7
:102190000122114301600548026010BD0000864025
:1021A0007C400000804000002810864008118640D6
:1021B00010B50E4807220261036803210B43036038
:1021C0000B4B1C68640708D41C68640705D41C68A2
:1021D000640702D41C686407F3D504249C611202CE
:1021E0000368934309025918016010BD005144402F
:1021F0003050444080B500F01BF8FFF7CBFEFFF7EE
:1022000073FFFFF7B9FFFFF749FFFFF7D1FF242066
:10221000044900220A54B82003490A5403480273AF
:1022200080BDC046B8052020E00520209C06202067
:1022300070B50C480C4941600C4A51600C4B596018
:102240000C4C61600C4D6960891E0C4E71600C492C
:102250000160116019602160296031601020FEF773
:1022600038F970BD00080A40030000B100280A4098
:1022700000480A4000088640008846400048444024
:1022800001000026E24800210170704710B52D20A2
:1022900003241B222146FFF7F1F93D201C22214691
:1022A000FFF7ECF94D201D222146FFF7E7F910BD9D
:1022B000B0B500200124202521462A46FFF7DEF98B
:1022C000102021222146FFF7D9F922222846214653
:1022D000FFF7D4F9302023222146FFF7CFF9602001
:1022E00024222146FFF7CAF9702041222146FFF738
:1022F000C3FBB0BDF0B58FB0C74D697828780246F2
:102300000A431AD0401CC0B200242246FEF7DEFC6D
:1023100069782878401EC0B22246FEF7D7FC28789C
:102320006978491CC9B22246FEF7D0FC2878697842
:10233000491EC9B22246FEF7C9FC012403E00698F3
:10234000C00700D185E0FDF723FF7C21FDF79EFF4C
:102350000E46CF1CFDF71CFF0CAD2F72AF71B11CE8
:1023600003912971311D0191A97005972F702C21BE
:10237000FDF78CFF084609300490687208460B3060
:102380000290E8710A316971E97000916970A3489F
:10239000007808904300981E0B90181F0A90981F11
:1023A000099000210791204603E00020491C0529DF
:1023B000C6D00690089A504250414D000CAE72199A
:1023C0005278092A274600D3079F7557022D2646C3
:1023D00000DB3E46362A274600D8079F002E2646B9
:1023E00000D13E46002E264600D10646002E03D0E0
:1023F0000429DAD20120D9E7EDB2002002E008304A
:102400008342F5D0834F3E5CAE4203D13E187678CE
:10241000964294D00B9E8642EAD0F44E3618B77896
:10242000AF4202D1F778974289D00A9F8742DFD026
:102430003779AF4203D17779974200D17FE7099F7F
:102440008742D5D0B779AF42D9D1F6799642D6D165
:1024500075E7714800994170059C04700198C0B2FD
:10246000CDB2012729463A46FEF730FC0398C0B2A8
:1024700029463A46FEF72AFCE5B20298C1B2284640
:102480003A46FEF723FC0498C1B228463A46FEF7C6
:102490001DFCFFF70FF85D480168394301600FB07C
:1024A000F0BDC046F0B583B0012000900746029011
:1024B00002267F2409253046294622462B46FEF770
:1024C00099FB009736273046394622463B46FEF7B1
:1024D00091FB029800903046294632463B46FEF773
:1024E00089FB029800902046294622463B46FEF78B
:1024F00081FB03B0F0BD0000F0B581B0FEF7C8FA73
:1025000000F098FAFFF7CEFF00F03EFA3E48007860
:1025100000280BD0C348002101703B480170B4482B
:102520000170B1481421017001B0F0BD0027374D92
:10253000374E08E03038AE49087001204740324835
:1025400000780028E6D13078002803D1FFF7D2FECA
:102550000120307000F09AF8A44948780A782E4B90
:1025600059781B785C1CE4B2A24201D1884211D098
:102570005C1EE4B2A24201D188420BD09A4203D140
:102580004C1CE4B2A04205D09A4213D1491EC9B2F4
:1025900088420FD194490878401C0870A1490878F6
:1025A000401D087000F0F0F900203070286801210B
:1025B00088432860FEF764F9414241410F43F9071F
:1025C000BBD1014623391529B7D8012422468A40B8
:1025D0005523DB031A42ADD1002912D12868A0434C
:1025E00028600F48009901400B48008809187E4870
:1025F00002787E48009100F017F92868204328608F
:102600009BE7072999D185E7AC062020041886406E
:10261000AD062020AF062020B6052020590020203E
:102620000000FFFFFFF7E6FDFEF764FB1448FDF72F
:10263000E1FD0124A00413490860FFF727FE1248BA
:10264000FDF747FFFEF724FA002503E0354301209C
:1026500045404440FFF72CFEE00701D0FEF72AFF7B
:10266000FEF70EF9044646424641413C601E844155
:102670002C43E007EAD1FFF73FFFFEF709FAE5E751
:102680003930000000E100E00090D003F0B585B0E3
:10269000554C20784000554D4019801E41780078F7
:1026A00000273A46FEF712FB2678701E010649D035
:1026B000049703270740B41EC3B2002F1BD05A1E35
:1026C0005100685C03945C00285528196C1802942A
:1026D00064784470039C012F204618D09A1E500045
:1026E0002C5C6C54291801914C7802994C70022F83
:1026F00003D1F01E0AE01A4609E0DA1E5300EC5C32
:102700002C54E818407801994870301F039CE1B2BE
:102710000329049F16D3510049190839CA794A720E
:102720008A790A720A798B780B714B79CC784C7163
:102730008A71CB710A788A704A78CA700839001F8A
:102740000206EBD12A48C057C1B209290CD2FF2298
:102750005632CA40D10707D026A1095C800028A2C2
:102760001058027851180170FFF79CFE7C20C1437D
:102770002A787F3A01208A42014600D339466A7896
:10278000092A034600D33B461943352A00D8384668
:102790000143012919D1EB480178891E017000F02D
:1027A000F3F812480178022901D27F2103E049B2EF
:1027B000002901D5022101704178092901D2362171
:1027C00002E0372901D309214170002E07D0697832
:1027D00028780122FEF77AFAAD1C761EF7D1FEF7B3
:1027E00069FE05B0F0BDC04659002020AF0620208C
:1027F000B4052020FFFFFFFFFFFF01FF01000000E5
:10280000AF062020AF062020B0062020AF062020F3
:10281000AF062020AF062020AF062020AF062020E4
:10282000B0062020AE062020F0B58BB005460891FA
:102830000F0A0A92012A09DB2E460A9C7178307829
:102840000022FEF743FAB61C641EF7D10497FCB2CF
:10285000089F781CC0B20026079021463246FEF73A
:1028600035FA781EC0B20690099421463246FEF72A
:102870002DFAFCB2049F781CC1B220460591324665
:10288000FEF724FA781EC1B208942046344604911B
:102890003246FEF71BFAFEF70DFE1E2003900227BC
:1028A00022223946FEF7EAFE2E20029023263946E0
:1028B0003246FEF7E3FE3E20019027223946FEF71E
:1028C000DDFE4E20009028223946FEF7D7FE042771
:1028D000252203983946FEF7D1FE26220298394672
:1028E000FEF7CCFE242201983946FEF7C7FE009879
:1028F00039463246FFF7C0F801273E4600E006465B
:10290000FDF7BEFF0028394600D0F143C90704D0C7
:1029100000283846F3D03046F1E723282646EFD189
:1029200001260824F0B2E1B20022FEF7CFF9641CC0
:10293000362CF7D1761C7F2EF3D10A9C012C07DBB5
:10294000697828780122FEF7C1F9AD1C641EF7D121
:1029500001240798099D29462246FEF7B7F90698F3
:1029600029462246FEF7B2F9089D284605992246D7
:10297000FEF7ACF9284604992246FEF7A7F9FEF7C0
:1029800099FD0BB0F0BD0000F0B585B00225002721
:10299000284639463A46FEF7D3FF12240122204644
:1029A0003946FEF7CDFF5020029039462A46FEF701
:1029B000C7FF60200490032639463246FEF7C0FF69
:1029C000604802780820039000906E203946334614
:1029D000FFF7ECF90F270426284639463246FEF762
:1029E000AFFF0C2007252A222946FFF7B5F905225B
:1029F00020463946FEF7A4FF1A2006223946FEF784
:102A00009FFF029839463246FEF79AFF5A2023224A
:102A10002946FFF7A1F9049839462A46FEF790FFA8
:102A200068203946039AFEF78BFFFEF743FD05B099
:102A3000F0BDC04670B52620414C3B2121542420D6
:102A40003A21215422203921215420203821215497
:102A50002820E0773721A177607736252577E07643
:102A60003521A176607634212176E0753321A17578
:102A7000607532212175E0743121A17460743021B8
:102A80002174E0732F21A17360732E212173E072F2
:102A90002D21A17260722C212172E0712B21A17174
:102AA00060712A212171E0702921A170607020706D
:102AB0002146263148702146243148702146223172
:102AC0004870214620314870FFF7ECFC7C20C14360
:102AD00023787F3B012000228B42014600D3114620
:102AE0006378092B064600D316463143352B00D8B0
:102AF00010460143012916D112480178891E017040
:102B0000FFF742FF2078022801D27F2003E040B285
:102B1000002801D5022020706078092802D33728C8
:102B200001D3092565700025605D6119497801228E
:102B3000FEF7CCF8AD1C282DF6D1FEF7BBFC70BD1E
:102B4000AF062020AE06202043088B421AD3002275
:102B500003098B4279D3030A8B425ED3030B8B426A
:102B600042D3030C8B4227D30902FF2212BA030C73
:102B70008B4202D31212090203D0030B8B4233D3D0
:102B80001AE0D3E0411A8041401C704703460B43D2
:102B900071D443088B42F5D3002203098B4254D3EE
:102BA000030A8B4239D3030B8B421DD3030C8B4298
:102BB00002D394466EE0090AC30B8B4201D3CB03C8
:102BC000C01A5241830B8B4201D38B03C01A52416E
:102BD000430B8B4201D34B03C01A5241030B8B4270
:102BE00001D30B03C01A5241C30A8B4201D3CB025B
:102BF000C01A5241830A8B4201D38B02C01A524140
:102C0000430A8B4201D34B02C01A5241030A8B4242
:102C100001D30B02C01A5241CDD2C3098B4201D35A
:102C2000CB01C01A524183098B4201D38B01C01AD8
:102C3000524143098B4201D34B01C01A524103094F
:102C40008B4201D30B01C01A5241C3088B4201D3FE
:102C5000CB00C01A524183088B4201D38B00C01AAB
:102C6000524143088B4201D34B00C01A5241411AD2
:102C7000524110007047CA0F00D04942031000D3E0
:102C80004042534000229C4603098B422DD3030A45
:102C90008B4212D38901FC2212BA030A8B420CD355
:102CA000890192118B4208D3890192118B4204D37E
:102CB000890137D0921100E08909C3098B4201D301
:102CC000CB01C01A524183098B4201D38B01C01A38
:102CD000524143098B4201D34B01C01A52410309AF
:102CE0008B4201D30B01C01A5241C3088B4201D35E
:102CF000CB00C01A524183088B4201D38B00C01A0B
:102D00005241D9D243088B4201D34B00C01A5241E1
:102D1000411A00D201465241104663465B1000D36F
:102D20004042704763465B1000D3404201B500212A
:102D3000004201D0C9430846C046C04602BD00005B
:102D4000000000000000002F000000000700070046
:102D500000147F147F1400242A7F2A120062640862
:102D600013230036495522500000050300000000DF
:102D70001C224100000041221C000014083E0814DF
:102D80000008083E0808000000A0600000080808CD
:102D90000808000060600000002010080402003EE7
:102DA0005149453E0000427F400000426151494682
:102DB000002141454B31001814127F100027454572
:102DC0004539003C4A494930000171090503003684
:102DD0004949493600064949291E00003636000097
:102DE000000056360000000814224100001414149C
:102DF0001414000041221408000201510906003297
:102E00004959513E007C1211127C007F49494936D4
:102E1000003E41414122007F4141221C007F49493F
:102E20004941007F09090901003E4149497A007F73
:102E30000808087F0000417F4100002040413F0119
:102E4000007F08142241007F40404040007F020C78
:102E5000027F007F0408107F003E4141413E007F19
:102E600009090906003E4151215E007F09192946E2
:102E70000046494949310001017F0101003F4040BE
:102E8000403F001F2040201F003F4038403F00636C
:102E9000140814630007087008070061514945438E
:102EA00000007F41410000552A552A55000041414C
:102EB0007F00000402010204004040404040000046
:102EC00001020400002054545478007F48444438E0
:102ED00000384444442000384444487F0038545467
:102EE000541800087E0901020018A4A4A47C007FE5
:102EF000080404780000447D4000004080847D0088
:102F0000007F102844000000417F4000007C04182E
:102F10000478007C0804047800384444443800FCF9
:102F2000242424180018242418FC007C0804040815
:102F300000485454542000043F444020003C40408A
:102F4000207C001C2040201C003C4030403C0044C1
:102F500028102844001CA0A0A07C004464544C44C9
:102F600014141414141400000000000000000000E9
:102F7000000000000000000000F800000000000059
:102F800000333000000000100C06100C060000009A
:102F900000000000000040C07840C0784000043FBE
:102FA00004043F040400007088FC0830000000188E
:102FB00020FF211E0000F008F000E01800000021B2
:102FC0001C031E211E0000F00888700000001E2156
:102FD00023241927211010160E0000000000000005
:102FE000000000000000000000E0180402000000E3
:102FF00000071820400000020418E0000000004014
:10300000201807000000404080F08040400002028D
:10301000010F01020200000000F0000000000101A9
:10302000011F01010100000000000000000080B04D
:10303000700000000000000000000000000000011F
:10304000010101010101000000000000000000304A
:1030500030000000000000000000806018040060E4
:1030600018060100000000E010080810E000000F42
:10307000102020100F00001010F8000000000020A9
:10308000203F2020000000700808088870000030F1
:103090002824222130000030088888483000001899
:1030A000202020110E000000C02010F800000007B2
:1030B0000424243F240000F8088888080800001928
:1030C000212020110E0000E0108888180000000F59
:1030D000112020110E0000380808C8380800000030
:1030E000003F000000000070880808887000001C85
:1030F000222121221C0000E010080810E00000003E
:10310000312222110F00000000C0C00000000000AA
:1031100000303000000000000080000000000000CF
:1031200080600000000000008040201008000001C6
:103130000204081020004040404040404000040489
:103140000404040404000008102040800000002053
:10315000100804020100007048080808F000000090
:10316000003036010000C030C828E810E000071821
:10317000272423140B000000C038E0000000203C8E
:1031800023020227382008F8888888700000203F32
:10319000202020110E00C030080808083800071849
:1031A00020202010080008F808080810E000203F40
:1031B000202020100F0008F88888E8081000203F21
:1031C00020202320180008F88888E8081000203FF5
:1031D000200003000000C03008080838000007186D
:1031E0002020221E020008F808000008F808203FEE
:1031F000210101213F20000808F8080800000020F4
:10320000203F2020000000000808F8080800C080C7
:1032100080807F00000008F888C028180800203F40
:1032200020012638200008F8080000000000203F98
:1032300020202020300008F8F800F8F80800203F8F
:10324000003F003F200008F830C00008F808203F89
:10325000200007183F00E01008080810E0000F10D9
:10326000202020100F0008F808080808F000203F70
:10327000210101010000E01008080810E0000F180B
:10328000242438504F0008F8888888887000203F30
:103290002000030C3020007088080808380000382F
:1032A000202121221C00180808F808081800000036
:1032B000203F2000000008F808000008F808001F60
:1032C000202020201F000878880000C8380800004F
:1032D00007380E010000F80800F80008F800033C69
:1032E0000700073C03000818688080681808203031
:1032F0002C03032C30200838C800C8380800000010
:10330000203F2000000010080808C83808002038B6
:10331000262120201800000000FE0202020000000A
:10332000007F40404000000C30C000000000000062
:1033300000010638C00000020202FE00000000404A
:1033400040407F0000000000040202020400000070
:10335000000000000000000000000000000080806D
:103360008080808080800002020400000000000055
:103370000000000000000000808080800000001934
:10338000242222223F2008F8008080000000003F15
:10339000112020110E000000008080800000000E2F
:1033A000112020201100000000808088F800000E0D
:1033B000112020103F200000808080800000001F2E
:1033C000222222221300008080F0888888180020A2
:1033D000203F202000000000808080808000006B63
:1033E00094949493600008F8008080800000203F4F
:1033F000210000203F20008098980000000000205D
:10340000203F20200000000000809898000000C0AD
:103410008080807F000008F8000080808000203FCE
:1034200024022D302000000808F8000000000020D1
:10343000203F202000008080808080808000203F0E
:1034400020003F20003F8080008080800000203FDF
:10345000210000203F200000808080800000001FAD
:10346000202020201F00808000808000000080FF3E
:10347000A12020110E000000008080808000000E3E
:10348000112020A0FF80808080008080800020208C
:103490003F212000010000008080808080000033F8
:1034A000242424241900008080E080800000000093
:1034B000001F202000008080000000808000001F8E
:1034C000202020103F20808080000080808000012C
:1034D0000E300806010080800080008080800F3060
:1034E0000C030C300F0000808000808080000020E2
:1034F000312E0E312000808080000080808080810D
:103500008E7018060100008080808080800000217D
:10351000302C2221300000000000807C02020000DC
:103520000000003F404000000000FF0000000000DD
:103530000000FF0000000002027C8000000000404C
:10354000403F00000000FFFFFFFFFFFFFFFFFFFF06
:10355000FFFFFFFFFFFF707EFEFEFEFEFEFEFEFE93
:10356000FEFEFEFE783000000000000000000000BB
:10357000000000000000041E1E1A7B7BDBDFDDDF85
:103580007B7A3E16040400000000000000000000EA
:1035900000000000000080C4FCFCFCFCFCFEFEFC03
:1035A000FCFCFCFCC4000000000000000000000067
:1035B00000000000000083839F9FBFF7F7B7B7F7B5
:1035C000F7BF9F9F83000000000000000000000084
:1035D000000000000000487C7CFCFCFCFCFCFC7C47
:1035E000FEFE0E1E1C000000000000000000000097
:1035F0000000000000008080DFDF617F3F617FDF2F
:10360000DFBFFFE0F000000000000000000000004D
:10361000000000000000808080B0B8BCFEF6B0B0B2
:10362000BCBCB8F0E000000000000000000000009A
:1036300000000000000088988CBCB6B7B7B4B4B7DF
:10364000B7B6BC8C9800000000000000000000002D
:1036500000000000000000FCFCB4B4B4246C6CFE5C
:10366000FEFE6CFCF80000000000000000000000FE
:10367000000000000000C4F7FFDD5575F5FD3DFFBB
:10368000FFFF3D3D3500000000000000000000008D
:1036900000000000000000C0FEFE868484F4FCBC34
:1036A0008484848404000000000000000000000006
:1036B0000000000000000303FFFFC0C0F0FFFFC0D8
:1036C000C0C0FFFFC00000000000000000000000BC
:1036D000000000000000F8FCFCFCFC9C989898FEA0
:1036E000FE98989890000000000000000000000084
:1036F000000000000000FFFFFF1B1F7FFFC1C1FF94
:10370000FFC1FFFF7F00000000000000000000007C
:10371000000000000000101236BEECD85010FEFE73
:10372000181818D8D80000000000000000000000A1
:1037300000000000000082C7C76564341CFEFF1D46
:10374000356565C5C50000000000000000000000F0
:103750000000000000001030FEFE30FCFCC4C4FC81
:10376000FCF8FCFCFC000000000000000000000071
:10377000000000000000C484FFFFC3F3FFDF82FEEF
:10378000FEBFBFFFFF0000000000000000000000BF
:10379000000000000000008C8CFCFC8C08E0FE3E69
:1037A0001AD8F870000000000000000000000000BF
:1037B0000000000000004141617F3FB1DBFB703839
:1037C0001E071F7CF0000000000000000000000049
:1037D00000000000000000FCFEF6F6D6D6DEDEDEBD
:1037E000D6D6D6F6F600000000000000000000006B
:1037F000000000000000E0FFFFE377BE9E86FEFEB3
:10380000061E3EF7E300000000000000000000007C
:103810000000000000001010169EFCF0F0F89898D0
:10382000FEFE98F8F000000000000000000000001C
:103830000000000000000C0EFFFFFF071F1F11110A
:10384000FFFF111F1F00000000000000000000002B
:1038500000000000000000F8F8C8C8C8CECECCC8F0
:10386000C8C8F8F870000000000000000000000068
:10387000000000000000E0FF3FFEFE8282828282A4
:10388000828282FEFE0000000000000000000000B6
:103890000000000000008088989898989888B030C0
:1038A000FEFE3030F0E000000000000000000000EC
:1038B00000000000000000607C7F676C7CF8E0FC8A
:1038C000BF8780E0FF3F0000000000000000000014
:1038D00000000000000000000000000000000000E8
:1038E00000000000000000000000000000000000D8
:1038F00000000000000000F0F0F060000000000098
:1039000000000000000000000000000000000000B7
:1039100000000000000000000000000000000000A7
:103920000000000000000000000000000000000097
:103930000000000000003078C8C8783000000000A7
:103940000000000000000000000000000000000077
:10395000000000000000000000F8F8F8000000007F
:103960000000000000000000000000000000000057
:103970000000000000000000006F6F6F00000000FA
:103980000000000000000000000000000000000037
:103990000000000000000000000000707858B8F837
:1039A000F0400000000000000000000000000000E7
:1039B000000000000000000000000000006E6F63C7
:1039C00001000000000000000000000000000000F6
:1039D00000000000000000000000000000000000E7
:1039E000F8F818181800000000000000000000009F
:1039F00000000000000000000000000000000000C7
:103A00007F3F0000000000000000000000000000F8
:103A100000000000000000000000F0F8F8000000C6
:103A20000000000000000000000000000000000096
:103A3000000000000000002060607F7F3F00000069
:103A40000000000000000000000000000000000076
:103A5000000000000000082848890E887808080047
:103A6000F80000FF0000000000000000000000005F
:103A7000000000000000402010090619600000004E
:103A80000F40807F000000000000000000000000E8
:103A9000000000000000101010FF1090FE829292B3
:103AA00092929282000000000000000000000000DE
:103AB0000000000000000444827F81601F00FF803E
:103AC00047182442800000000000000000000000B1
:103AD000000000000000100C2424242425E62424E7
:103AE000242424140C00000000000000000000004A
:103AF000000000000000020202020242827F020275
:103B000002020202020000000000000000000000AB
:103B100000000000000000F800007F555555555585
:103B20007F0000F80000000000000000000000001E
:103B30000000000000008849390909FF000000FF6B
:103B4000090909F900000000000000000000000061
:103B5000000000000000048484FC848400FE929233
:103B6000929292FE000000000000000000000000A1
:103B70000000000000002060201F101000FE442400
:103B8000007E8884E20000000000000000000000C9
:103B9000000000000000108C8484848485F68484F6
:103BA000848484940C0000000000000000000000E9
:103BB00000000000000020201008040201FF0102A4
:103BC0000408102020000000000000000000000099
:103BD0000000000000008484FC84840004FF24248E
:103BE0002424FF040000000000000000000000008A
:103BF00000000000000010301F080800884F29094D
:103C000009294F88080000000000000000000000A3
:103C10000000000000000080804060505856C848F6
:103C20001020204000000000000000000000000004
:103C300000000000000000000000805F211F203114
:103C40006F400000000000000000000000000000C5
:103C500000000000000000E02020F020006010AE16
:103C6000A010100000000000000000000000000094
:103C700000000000000000000101010000192721E0
:103C800040406020380000000000000000000000FC
:103C9000000000000000008080A458C04080602424
:103CA0002C20603020000000000000000000000018
:103CB000000000000000001013170A090C001F2567
:103CC0002221212030000000000000000000000040
:103CD0000000000000000000000000F090909454EC
:103CE0006818000000000000000000000000000054
:103CF0000000000000000000201806013C242424DD
:103D0000243E04000000000000000000000000004D
:103D100000000000000000808080909090404040B3
:103D2000FC2420E000000000000000000000000073
:103D30000000000000000000080E054422140C03DF
:103D400020201C0300000000000000000000000014
:103D5000000000000000008080808090F88888F8D3
:103D600088884040000000000000000000000000C3
:103D70000000000000000000002018070000003FC5
:103D80000000000000000000000000000000000033
:103D900000000000000000000000F488C000C0B077
:103DA0008C8060C0000000000000000000000000E7
:103DB00000000000000000012123150E11001C244A
:103DC00024241C040000000000000000000000008B
:103DD000000000000000000040084840C4282020E7
:103DE0005ED050480000000000000000000000000D
:103DF00000000000000000080E0A04031807040475
:103E0000427F0202020000000000000000000000EB
:103E10000000000000000000002020E00080BCC086
:103E20004088880000000000000000000000000042
:103E3000000000000000000008050302141008053F
:103E40000E11206070000000000000000000000063
:103E500000000000000000004040FCA0206040A4E2
:103E600028203020000000000000000000000000BA
:103E7000000000000000000804223F020222261970
:103E80000E133121010000000000000000000000BE
:103E90000000000000000000C0B0886000F000A03A
:103EA000F48CA010000000000000000000000000E2
:103EB000000000000000000032151208003F25221B
:103EC0002F2022240000000000000000000000005D
:103ED00000000000000000004070CC6450C0507230
:103EE000CC48E86000000000000000000000000076
:103EF0000000000000000000100B0A05484A271CC3
:103F0000071424440000000000000000000000002E
:103F10000000000000000000006058FEA82880702B
:103F200028E4240000000000000000000000000061
:103F300000000000000000010101017F5636254409
:103F40007C030000000000000000000000000000F2
:103F5000000000000000008040E01C040000706EC3
:103F600058E8808000000000000000000000000011
:103F70000000000000000000001F00000101457D5E
:103F80000302020100000000000000000000000029
:103F9000000000000000003C3C18687E08000000A3
:103FA000000000000000007C1A243A427E0000005D
:103FB00000000000000010884C30887C10000000D9
:103FC00000000000000080AA5F668E734C000000B5
:103FD00000000000000020207E687A3454100000A9
:103FE0000000000000000032487A765E60000000A9
:103FF0000000000000000030507E5048000000002B
:1040000000000000000000147E5A6C1A040000003A
:10401000000000000000083C122C7416080000008C
:10402000000000000000005C4C7C547E4800000052
:10403000000000000000001C3EB87C284800000082
:10404000000000000000080004000000000007104D
:10405000000000000100000000000000000000005F
:10406000000000000000000010000000000100003F
:1040700003000000000000003400C4410407630096
:10408000000000004FC3000000000000000000001E
:104090000000000000000000B840000000002020E8
:1040A0006000000020010000184100006000202096
:1040B0001827000048010000000000000000000078
:1040C00000000000000000000000000000000000F0
:1040D00000000000000000000000000000000000E0
:1040E00000000000000000000000000000000000D0
:1040F0000000000000000000000000000000202080
:10410000003132334134353642373839432A30238F
:0841100044140000000000004F
:04000005000000C136
:00000001FF
