:020000040000FA
:1000000020262020910100009501000097010000AA
:1000100000000000000000000000000000000000E0
:100020000000000000000000000000009901000036
:1000300000000000000000009B0100009D01000086
:100040009F0100009F0100009F0100009F01000030
:100050009F0100009F0100009F0100009F01000020
:100060009F0100009F0100009F0100009F01000010
:100070009F0100009F0100009F0100009F01000000
:100080009F0100009F0100009F0100009F010000F0
:100090009F0100009F0100009F0100009F010000E0
:1000A0009F0100009F0100009F0100009F010000D0
:1000B0009F0100009F0100009F0100009F010000C0
:1000C00000F002F800F054F812A030C808382418E4
:1000D0002D18AC4201D100F04BF80FCCA246AB4634
:1000E0000CA730CF2D1B083F3F197C427F1E544484
:1000F0002D090426F441641EAC4201D300F038F807
:100100000126334200D0FB1A3343984754465D46DC
:10011000DFE70000CC2B0000EC2B0000000000000B
:10012000103A02D378C878C1FAD8520701D330C840
:1001300030C101D504680C60704700000000000069
:100140007047000000000000002300240025002666
:10015000103A01D378C1FBD8520700D330C100D583
:100160000B6070471FB500F049F81FBD10B510BDFA
:1001700000F070F81146FFF7F5FF01F03DFD00F0CB
:1001800088F803B4FFF7F2FF03BC00F08FF800001B
:1001900006480047FEE7FEE7FEE7FEE7FEE7FEE76C
:1001A00003480449024A044B70470000C1000000A4
:1001B00020062020202620202006202010B50446DE
:1001C00000211120ABBE002C00D0206010BD00002B
:1001D0000B4A30B511460B4C60310B46DC3B0CC171
:1001E000372106E0020C8D0012185A51064A50437E
:1001F00000190A46491E002AF4DC30BD0120E7E759
:10020000DC002020E119D666CD0D010001E004C01C
:10021000091F0429FBD28B0701D50280801CC90766
:1002200000D00270704700290BD0C30702D00270C3
:10023000401C491E022904D3830702D50280801C7A
:10024000891EE3E70022EEE70022DFE770477047F0
:1002500070477047754600F025F8AE4605006946C0
:100260005346C008C000854618B020B5FFF798FF78
:1002700060BCB64600260027C0C5C0C5C0C5C0C505
:10028000C0C5C0C5C0C5C0C5403D490849008D4670
:10029000704710B50446C046C0462046FFF771FFC0
:1002A00010BD00000048704744012020014918207B
:1002B000ABBEFEE726000200811E091F00BFFCD274
:1002C0007047000012490A68124802604A6842609A
:1002D0008A688260CA68C2600A6902614A694261CA
:1002E0008A698261CA69C2610A6A02624A6A4262B2
:1002F0008A6A8262CA6AC2620A6B02634A6B42639A
:100300008A6B8263C96B7B4A0264C1637047C046D3
:100310000000C44100002020B0B511221202835811
:100320000C4C1C400B894D881D438B792B430A4D87
:100330001D4063198350CB798C881C430978214375
:100340005D239B001940801842689A435118416010
:10035000B0BDC04680CCFFFF7F33000010B5012246
:10036000120383180C785C604978815010BD00003E
:10037000F0B585B0044601252902394E3068049154
:10038000884330605A480068006C5A49884201D05E
:10039000FFF798FFA9036C4802680A4208D1026877
:1003A0000A4205D102680A4202D102680A42F3D029
:1003B000617E2940B269AA435118B1612021615C74
:1003C00003221140F36993435918F16125490A68E2
:1003D00005230B60636A1F6837625B6873620723DB
:1003E00013400B60E1697F221202F36993434906CF
:1003F000490C5918F161276803956568A168009157
:10040000E3682169019161690291B269164911405D
:100410003A07120B2D03ADB2AA181A43009B1B0713
:100420001B0D1343019A1343029A1343227E1A436E
:100430000E4B13405918B1613168049A1143316071
:100440000399490202680A4208D102680A4205D1AA
:1004500002680A4202D102680A42F3D005B0F0BD38
:1004600008010B40001340408D00F0FF72FF0F00A9
:10047000F0B581B014460D4606461D480068006C74
:100480001C49884201D0FFF71DFF1B480246083A6D
:10049000136801218B43136003231B031E4007686D
:1004A0009F43BB1903600368FF26B343EDB25B199A
:1004B000036013680B4313600268002C12D00B0713
:1004C0001A430260080220490A68024208D10A68F9
:1004D000024205D10A68024202D10A680242F3D000
:1004E00001B0F0BD09078A43026001B0F0BDC0460B
:1004F00044002020FECAFECA10010B4010B511496D
:10050000886001225305104804681C4208D1046821
:100510001C4205D104681C4202D104681C42F3D07D
:1005200012040B6813430B600168C90608D4016804
:10053000C90605D40168C90602D40168C906F3D505
:1005400010BDC04604010B4004020B40F0B587B05B
:10055000F048402404611920C0010390FFF7ACFE6D
:10056000012739057A4D2868C002049105D428680E
:10057000084202D10123002001E0002338463A0658
:100580002968C901029206D42968114203D10221C7
:100590000691002101E0069339467B062A68920104
:1005A000019306D42A681A4203D10322069200223C
:1005B00000E03A46FE062B681B0104D42B68334248
:1005C00001D1002074E0059608401040D148046035
:1005D0000FD0802404610398FFF76EFE2868049909
:1005E000084208D12868084205D101200690002061
:1005F00002E0002077E03846029A019B2968114208
:1006000006D12968114203D102210691002100E0A0
:1006100039462A681A4206D12A681A4203D10322AF
:100620000692002200E03A462B68059E334205D12F
:100630002B68059E334201D1042039E00840104068
:10064000B44804600FD00126340204610398FFF718
:1006500033FE28680499084207D12868084204D16B
:100660000020069602E004203DE03846029A019BF5
:100670002968114206D12968114203D1022106914D
:10068000002100E039462A681A42009606D12A68FD
:100690001A4203D103220692002200E03A462B6858
:1006A000059E334208D12B68059E334204D10820B1
:1006B00098490C60042117E00840104095480460F8
:1006C00010D000994C0204610398FFF7F5FD2868EB
:1006D000049908420DD1286808420AD10D200690DD
:1006E00000200AE00820069909181A48405C07B063
:1006F000F0BD06980C3006903846029A019B296896
:10070000114206D12968114203D10E210691002120
:1007100000E039462A681A4205D12A681A4202D1F5
:100720000F22069200272A68059B1A4206D12A68E2
:100730001A4203D1774804601021D6E708403840B8
:100740007448046001D10699CFE70021CDE7C04687
:1007500080330A4048002020F0B581B00121080212
:10076000490200226D4B6E4C03E0521C082A00D156
:100770009CE0186119612568ED0608D52568ED062D
:1007800005D52568ED0602D52568ED06F3D4154696
:10079000B03525632568ED0608D52568ED0605D535
:1007A0002568ED0602D52568ED06F3D419601860BA
:1007B000186119612568ED0608D52568ED0605D58F
:1007C0002568ED0602D52568ED06F3D402252563DC
:1007D0002568ED0608D52568ED0605D52568ED06E2
:1007E00002D52568ED06F3D4196018601861196107
:1007F0002568ED0608D52568ED0605D52568ED06C2
:1008000002D52568ED06F3D4102525632568ED068D
:1008100008D52568ED0605D52568ED0602D52568BD
:10082000ED06F3D419601860002505E01960186022
:10083000AD1C6DB2002D98D4186019612668F606BB
:1008400008D52668F60605D52668F60602D5266878
:10085000F606F3D4002626632768FF0608D5276826
:10086000FF0605D52768FF0602D52768FF06F3D4E3
:1008700019601860186019612768FF0608D5276895
:10088000FF0605D52768FF0602D52768FF06F3D4C3
:1008900026632668F606C9D52668F606C6D52668F4
:1008A000F606C3D52668F606F3D4BFE7412001015A
:1008B0000B48FFF7C9FC01B0F0BDC04610B50724D6
:1008C0000C400123A340C000054C2018C908445C1B
:1008D000002A02D01C43445410BD9C43445410BD14
:1008E000A4012020F0B583B00127FD05094E356035
:1008F000094C2046FFF7E0FC35612046FFF7DCFCA1
:1009000035603C02054D2C6102977E022E61044F3A
:1009100008E0C04690320A4000127A0090520A4025
:10092000109146403868C00608D53868C00605D51D
:100930003868C00602D53868C006F3D4AE203863E4
:100940003868C00608D53868C00605D53868C006BE
:1009500002D53868C006F3D42E602C602C612E615D
:100960003868C00608D53868C00605D53868C0069E
:1009700002D53868C006F3D4022038633968C90646
:1009800008D53968C90605D53968C90602D5396858
:10099000C906F3D42E602C602C612E613968C9061B
:1009A00008D53968C90605D53968C90602D5396838
:1009B000C906F3D41021019139633968C90608D5F5
:1009C0003968C90605D53968C90602D53968C90626
:1009D000F3D42E602C602C612E613968C90608D5CD
:1009E0003968C90605D53968C90602D53968C90606
:1009F000F3D440223A633968C90608D53968C90674
:100A000005D53968C90602D53968C906F3D42E6000
:100A10002C602C612E613968C90608D53968C90671
:100A200005D53968C90602D53968C906F3D48121CC
:100A300039633968C90608D53968C90605D53968E2
:100A4000C90602D53968C906F3D42E602C602C6122
:100A50002E613968C90608D53968C90605D53968CF
:100A6000C90602D53968C906F3D4CF21396339687C
:100A7000C90608D53968C90605D53968C90602D539
:100A80003968C906F3D42E602C602C612E61396858
:100A9000C90608D53968C90605D53968C90602D519
:100AA0003968C906F3D4A12139633968C90608D564
:100AB0003968C90605D53968C90602D53968C90635
:100AC000F3D42E602C602C612E613968C90608D5DC
:100AD0003968C90605D53968C90602D53968C90615
:100AE000F3D4C82139633968C90608D53968C906FD
:100AF00005D53968C90602D53968C906F3D42E6010
:100B00002C602C612E613968C90608D53968C90680
:100B100005D53968C90602D53968C906F3D4A621B6
:100B200039633B68DB0608D53B68DB0605D53B68C7
:100B3000DB0602D53B68DB06F3D42E602C602C610B
:100B40002E613B68DB0608D53B68DB0605D53B68B4
:100B5000DB0602D53B68DB06F3D4A8233B633B6886
:100B6000DB0608D53B68DB0605D53B68DB0602D50E
:100B70003B68DB06F3D42E602C602C612E613B6851
:100B8000DB0608D53B68DB0605D53B68DB0602D5EE
:100B90003B68DB06F3D43F233B633B68DB0608D5A9
:100BA0003B68DB0605D53B68DB0602D53B68DB0608
:100BB000F3D42E602C602C612E613B68DB0608D5D7
:100BC0003B68DB0605D53B68DB0602D53B68DB06E8
:100BD000F3D4D3233B633B68DB0608D53B68DB06D5
:100BE00005D53B68DB0602D53B68DB06F3D42E60F7
:100BF0002C602C612E613B68DB0608D53B68DB0668
:100C000005D53B68DB0602D53B68DB06F3D4002341
:100C10003B633B68DB0608D53B68DB0605D53B68D4
:100C2000DB0602D53B68DB06F3D42E602C602C611A
:100C30002E613B68DB0608D53B68DB0605D53B68C3
:100C4000DB0602D53B68DB06F3D4D5233B633B6868
:100C5000DB0608D53B68DB0605D53B68DB0602D51D
:100C60003B68DB06F3D42E602C602C612E613B6860
:100C7000DB0608D53B68DB0605D53B68DB0602D5FD
:100C80003B68DB06F3D480233B633B68DB0608D577
:100C90003B68DB0605D53B68DB0602D53B68DB0617
:100CA000F3D42E602C602C612E613B68DB0608D5E6
:100CB0003B68DB0605D53B68DB0602D53B68DB06F7
:100CC000F3D4D9233B633B68DB0608D53B68DB06DE
:100CD00005D53B68DB0602D53B68DB06F3D42E6006
:100CE0002C602C612E613B68DB0608D53B68DB0677
:100CF00005D53B68DB0602D53B68DB06F3D4F12360
:100D00003B633B68DB0608D53B68DB0605D53B68E3
:100D1000DB0602D53B68DB06F3D42E602C602C6129
:100D20002E613B68DB0608D53B68DB0605D53B68D2
:100D3000DB0602D53B68DB06F3D4DA233B633B6872
:100D4000DB0608D53B68DB0605D53B68DB0602D52C
:100D50003B68DB06F3D42E602C602C612E613B686F
:100D6000DB0608D53B68DB0605D53B68DB0602D50C
:100D70003B68DB06F3D412233B633B68DB0608D5F4
:100D80003B68DB0605D53B68DB0602D53B68DB0626
:100D9000F3D42E602C602C612E613B68DB0608D5F5
:100DA0003B68DB0605D53B68DB0602D53B68DB0606
:100DB000F3D4DB233B633B68DB0608D53B68DB06EB
:100DC00005D53B68DB0602D53B68DB06F3D42E6015
:100DD0002C602C612E613B68DB0608D53B68DB0686
:100DE00005D53B68DB0602D53B68DB06F3D43A63E6
:100DF0003A68D20608D53A68D20605D53A68D206CE
:100E000002D53A68D206F3D42E602C602C612E6194
:100E10003A68D20608D53A68D20605D53A68D206AD
:100E200002D53A68D206F3D420223A633A68D20651
:100E300008D53A68D20605D53A68D20602D53A688E
:100E4000D206F3D42E602C602C612E613A68D20653
:100E500008D53A68D20605D53A68D20602D53A686E
:100E6000D206F3D438633868C00608D53868C0069F
:100E700005D53868C00602D53868C006F3D42E60A0
:100E80002C602C612E613868C00608D53868C00611
:100E900005D53868C00602D53868C006F3D48D2061
:100EA00038633868C00608D53868C00605D5386884
:100EB000C00602D53868C006F3D42E602C602C61C1
:100EC0002E613868C00608D53868C00605D5386870
:100ED000C00602D53868C006F3D4142038633868D9
:100EE000C00608D53868C00605D53868C00602D5E2
:100EF0003868C006F3D42E602C602C612E613868EF
:100F0000C00608D53868C00605D53868C00602D5C1
:100F10003868C006F3D4A42038633868C00608D502
:100F20003868C00605D53868C00602D53868C006DE
:100F3000F3D42E602C602C612E613868C00608D571
:100F40003868C00605D53868C00602D53868C006BE
:100F5000F3D439633868C00608D53868C00605D5AB
:100F60003868C00602D53868C006F3D42E602C60FD
:100F70002C612E613868C00608D53868C00605D5D2
:100F80003868C00602D53868C006F3D4AF2038638D
:100F90003968C90608D53968C90605D53968C9064A
:100FA00002D53968C906F3D42E602C602C612E61FD
:100FB0003968C90608D53968C90605D53968C9062A
:100FC00002D53968C906F3D438633868C00608D535
:100FD0003868C00605D53868C00602D53868C0062E
:100FE000F3D42E602C60FFF7B7FB2C612E613868BC
:100FF000C00608D53868C00605D53868C00602D5D1
:101000003868C006F3D4B02038633868C00608D505
:101010003868C00605D53868C00602D53868C006ED
:10102000F3D42E602C602C612E613868C00608D580
:101030003868C00605D53868C00602D53868C006CD
:10104000F3D4019838633868C00608D53868C006FC
:1010500005D53868C00602D53868C006F3D42E60BE
:101060002C602C612E613868C00608D53868C0062F
:1010700005D53868C00602D53868C006F3D4029892
:1010800038633868C00608D53868C00605D53868A2
:10109000C00602D53868C006F3D42E602C6003B0B9
:1010A000F0BD0000F0B583B001200102420200272C
:1010B0006B4B6C4D6C4C019100920AE06748FFF756
:1010C000FBF8009A664B1A607F1C082F019900D12B
:1010D000C1E019611A612868C00608D52868C006F1
:1010E00005D52868C00602D52868C006F3D438465E
:1010F000B03028632868C00608D52868C00605D522
:101100002868C00602D52868C006F3D41A601960A2
:1011100019611A612868C00608D52868C00605D577
:101120002868C00602D52868C006F3D400262E63BE
:101130002868C00608D52868C00605D52868C006F6
:1011400002D52868C006F3D41A60196019611A61C3
:101150002868C00608D52868C00605D52868C006D6
:1011600002D52868C006F3D41020029028632868AE
:10117000C00608D52868C00605D52868C00602D56F
:101180002868C006F3D41A6019601A613348FFF763
:1011900093F82868C00608D52868C00605D52868D1
:1011A000C00602D52868C006F3D4029A2868C00693
:1011B0000DD52868C0060AD52868C00607D5286856
:1011C000C006F3D403E0361D802E00D176E7F00090
:1011D0002118C95D29632968C90608D52968C90687
:1011E00005D52968C90602D52968C906F3D408219E
:1011F00001436118C95D29632968C90608D52968B2
:10120000C90605D52968C90602D52968C906F3D4D7
:10121000014611436118C95D29632968C90608D5CB
:101220002968C90605D52968C90602D52968C906ED
:10123000F3D4182108432018C05D28632868C0062D
:10124000C1D52868C006BED52868C006BBD52868A9
:10125000C006F3D4B7E703B0F0BDC046801A06005D
:1012600090520A4010914640A4012020F0B585B06C
:10127000029101210C02AD4D2C6103914E022E61B1
:10128000AB4F3968C90608D53968C90605D539682C
:10129000C90602D53968C906F3D402995039C9B2D2
:1012A00039633968C90608D53968C90605D539686A
:1012B000C90602D53968C906F3D42E602C602C61AA
:1012C0002E613968C90608D53968C90605D5396857
:1012D000C90602D53968C906F3D401091031019154
:1012E00039633968C90608D53968C90605D539682A
:1012F000C90602D53968C906F3D42E602C602C616A
:101300002E613968C90608D53968C90605D5396816
:10131000C90602D53968C906F3D40E210840401C1D
:10132000009038633868C00608D53868C00605D50F
:101330003868C00602D53868C006F3D42E602C6029
:1013400050000490002104E02E602C60891C1029BC
:1013500041D02C602E610498420176488218535C7B
:101360003868C00608D53868C00605D53868C00694
:1013700002D53868C006F3D43B633868C00608D588
:101380003868C00605D53868C00602D53868C0067A
:10139000F3D42E602C602C602E610846039B18430A
:1013A000125C3868C00608D53868C00605D53868AC
:1013B000C00602D53868C006F3D43A633868C00660
:1013C000C2D53868C006BFD53868C006BCD53868F5
:1013D000C006F3D4B8E72C612E613868C00608D582
:1013E0003868C00605D53868C00602D53868C0061A
:1013F000F3D402984F38C0B238633868C00608D5B5
:101400003868C00605D53868C00602D53868C006F9
:10141000F3D42E602C602C612E613868C00608D58C
:101420003868C00605D53868C00602D53868C006D9
:10143000F3D4019838633868C00608D53868C00608
:1014400005D53868C00602D53868C006F3D42E60CA
:101450002C602C612E613868C00608D53868C0063B
:1014600005D53868C00602D53868C006F3D40098A0
:1014700038633868C00608D53868C00605D53868AE
:10148000C00602D53868C006F3D42E602C600398DD
:10149000049901430491002104E02E602C60891C12
:1014A000102941D02C602E6104984001214A121865
:1014B000535C3868C00608D53868C00605D538685A
:1014C000C00602D53868C006F3D43B633868C0064E
:1014D00008D53868C00605D53868C00602D5386812
:1014E000C006F3D42E602C602C602E610846039B4E
:1014F0001843125C3868C00608D53868C00605D5A0
:101500003868C00602D53868C006F3D43A63386834
:10151000C006C2D53868C006BFD53868C006BCD57D
:101520003868C006F3D4B8E705B0F0BD90520A4061
:10153000109146406C230000F0B585B001231C02D9
:10154000B24D2C6104935E022E61830902271F4075
:101550007F18AF490B68DB0608D50B68DB0605D59D
:101560000B68DB0602D50B68DB06F3D43B46503B29
:10157000DBB20B63203A00920B68DB0608D50B68E0
:10158000DB0605D50B68DB0602D50B68DB06F3D45A
:101590003A462E602C602C612E610B68DB0608D564
:1015A0000B68DB0605D50B68DB0602D50B68DB068E
:1015B000F3D440B2C3179843030910271F4302977F
:1015C0000F630B68DB0608D50B68DB0605D50B68D7
:1015D000DB0602D50B68DB06F3D42E602C602C6191
:1015E0002E610B68DB0608D50B68DB0605D50B689A
:1015F000DB0602D50B68DB06F3D403920E231840FA
:10160000401C019008630868C00608D50868C00639
:1016100005D50868C00602D50868C006F3D42E6058
:101620002C600098C0B20001002704E02E602C60FE
:10163000BF1C082F41D02C602E61C319754AD35CA2
:101640000A68D20608D50A68D20605D50A68D20605
:1016500002D50A68D206F3D40B630A68D20608D50D
:101660000A68D20605D50A68D20602D50A68D206EB
:10167000F3D42E602C602C602E613A46049B1A43F2
:101680008218644B9B5C0A68D20608D50A68D206A9
:1016900005D50A68D20602D50A68D206F3D40B63D0
:1016A0000A68D206C2D50A68D206BFD50A68D20631
:1016B000BCD50A68D206F3D4B8E72C612E610A685B
:1016C000D20608D50A68D20605D50A68D20602D520
:1016D0000A68D206F3D4039A4F3AD2B20A630A6870
:1016E000D20608D50A68D20605D50A68D20602D500
:1016F0000A68D206F3D42E602C602C612E610A6831
:10170000D20608D50A68D20605D50A68D20602D5DF
:101710000A68D206F3D4029A0A630A68D20608D588
:101720000A68D20605D50A68D20602D50A68D2062A
:10173000F3D42E602C602C612E610A68D20608D585
:101740000A68D20605D50A68D20602D50A68D2060A
:10175000F3D4019A0A630A68D20608D50A68D20649
:1017600005D50A68D20602D50A68D206F3D42E60DF
:101770002C6008221043002704E02E602C60BF1C60
:10178000082F41D02C602E61C219224B9B5C0A6845
:10179000D20608D50A68D20605D50A68D20602D54F
:1017A0000A68D206F3D40B630A68D20608D50A6821
:1017B000D20605D50A68D20602D50A68D206F3D445
:1017C0002E602C602C602E613A46049B1A438218CE
:1017D000104B9B5C0A68D20608D50A68D20605D56C
:1017E0000A68D20602D50A68D206F3D40B630A68E7
:1017F000D206C2D50A68D206BFD50A68D206BCD5C1
:101800000A68D206F3D4B8E705B0F0BD90520A409A
:10181000109146407C1D000070B52E4801461039DD
:1018200000220A6001460C390A608B218160416008
:1018300029492A4C0C650A6D0A65294BC363036468
:10184000836543664B624B648B64CB64254D2B6090
:1018500081226A6043628362C36203630C600E6824
:101860000E600C610E690E610C620E6A0E628C6273
:101870008C6A8C62CA60AA60EB601B4B03600468D0
:1018800004604361436943618261026542650266A7
:10189000081F02608A6015481549016101218A0309
:1018A0000260144A02641448144A02600263C807C2
:1018B00013490A6802430A6012490A6A02430A622B
:1018C0000A6802430A600F2080010F49086008631C
:1018D00070BDC04638804240C080424081000E004A
:1018E000810002005081424081000C0090120A40A9
:1018F0000032430000724300A0320A40C033C0747B
:10190000A0330A4028300A40A0520A4010B50D4CBE
:101910000D492046FEF722FD0C492046FEF7FCFC4F
:101920000B4841680B4A0A40D11C41608168122271
:101930000A432D218A438260016801220A43026022
:1019400010BDC04600804640AC2C0000AE2C00000C
:101950000491464000FCFFFFF0B581B01F48002411
:1019600004600F2630021E4D29688143012778024A
:101970000090081828600320C1432A1F13680B40F9
:1019800013606968B943696039026A688A436A60AA
:1019900000030A212246FEF76BFD1248FEF7E8FC21
:1019A00029681020014320229143296031036A6B8A
:1019B0008A43092109035118696339032A680A43D4
:1019C0002A60A96B0143A963686B009908436863A7
:1019D0002046FEF793FD01B0F0BDC04608030B4062
:1019E00004010B40B82C000010B50E48072202611C
:1019F000036803210B4303600B4B1C68640708D486
:101A00001C68640705D41C68640702D41C6864075A
:101A1000F3D504249C611202036893430902591808
:101A2000016010BD005144403050444080B500F08A
:101A300013F8FFF7F1FEFFF78FFFFFF767FFFFF7E0
:101A4000D3FF2420024900220A540248027380BDB9
:101A5000B8052020E0052020B0B50B480B494160B7
:101A60000B4A51600B4B59600B4C6160891E0B4D4A
:101A700069600B49016011601960216029601020C4
:101A8000FEF71AFCB0BDC04600080A40030000B1D2
:101A900000280A4000480A40008846400048444068
:101AA0000100002610B52D2003241B222146FFF73C
:101AB000DDFB3D201C222146FFF7D8FB4D201D22D7
:101AC0002146FFF7D3FB10BDB0B50020012420252F
:101AD00021462A46FFF7CAFB102021222146FFF7A4
:101AE000C5FB222228462146FFF7C0FB30202322D7
:101AF0002146FFF7BBFB602024222146FFF7B6FBFF
:101B0000702041222146FFF717FDB0BDF0B581B02E
:101B1000FEF722FE2620974D3B21295424203A210E
:101B2000295422203921295420203821295429469A
:101B30002631282048702946243148702946223110
:101B40004870294620314870E8773721A9776877AF
:101B500036212977E8763521A976687634212976E9
:101B6000E8753321A975687532212975E87431212A
:101B7000A974687430212974E8732F21A9736873DC
:101B80002E212973E8722D21A97268722C212972E5
:101B9000E8712B21A97168712A212971E870292126
:101BA000A970687028700026A85DA91949780124D9
:101BB0002246FEF783FEB61C282EF5D1FFF772FAF7
:101BC0000C4D2878002801D001B0F0BD00276A4EE6
:101BD00004E06140287800280F46F5D100F030F885
:101BE000FEF7B4FC414241413943CA07F1D13038D4
:101BF0003070EEE7F0052020FFF718FFFEF772FEC9
:101C000000242046FEF7DAFAFEF7E2FAFFF74AFF71
:101C10000A48FEF751FBFEF79FFDFFF755FF02E074
:101C20002C4301204440FEF791FC45424541E10729
:101C3000F6D14128F4D1FFF769FFF1E70090D00316
:101C4000F0B583B04A4D287840004A4C0019801EF8
:101C5000417800780022FEF731FE2D78681E0106DB
:101C600047D003260640A91EC3B2002E1BD05A1E21
:101C70005700E05D0291590060546018E11901912C
:101C8000497841700299012E084618D09A1E5000DA
:101C9000215CE155211800914978019F7970022E4D
:101CA00003D1E81E0AE01A4609E0DA1E5100635C1F
:101CB00023546018407800994870281F0299C9B2CF
:101CC000032916D3510009190839CA794A728A7949
:101CD0000A720A798B780B714B79CE784E718A71C2
:101CE000CB710A788A704A78CA700839001F0206D8
:101CF000EBD12148017808291AD8FF2079440979C5
:101D000049008F4404151215041507151100207899
:101D1000401E01E02078401C207001060CD0C0B2AB
:101D20007F280CD3012008E001206178081860703A
:101D3000104800780106F2D17E200E4908706078C4
:101D4000002803D03F2804D3012000E03E200949A9
:101D50004870002D07D0617820780122FEF7AEFD93
:101D6000A41C6D1EF7D1FFF79DF903B0F0BDC0466E
:101D700059002020F1052020B4052020000000009B
:101D8000000000000000000000000000000000F85B
:101D900000000000000000333000000000100C06BE
:101DA000100C0600000000000000000040C0784059
:101DB000C0784000043F04043F040400007088FC25
:101DC00008300000001820FF211E0000F008F0007D
:101DD000E018000000211C031E211E0000F00888EE
:101DE000700000001E2123241927211010160E0058
:101DF000000000000000000000000000000000E003
:101E00001804020000000007182040000002041817
:101E1000E00000000040201807000000404080F073
:101E2000804040000202010F01020200000000F0A9
:101E3000000000000101011F01010100000000007D
:101E40000000000080B070000000000000000000F2
:101E5000000000000001010101010101000000007B
:101E60000000000000303000000000000000000012
:101E700080601804006018060100000000E01008EF
:101E80000810E000000F102020100F00001010F8C4
:101E9000000000000020203F202000000070080803
:101EA0000888700000302824222130000030088883
:101EB000884830000018202020110E000000C020AB
:101EC00010F8000000070424243F240000F80888CC
:101ED000880808000019212020110E0000E0108859
:101EE00088180000000F112020110E00003808088B
:101EF000C83808000000003F00000000007088089B
:101F000008887000001C222121221C0000E010081B
:101F10000810E0000000312222110F00000000C074
:101F2000C000000000000030300000000000008011
:101F30000000000000008060000000000000804001
:101F4000201008000001020408102000404040401A
:101F5000404040000404040404040400000810206D
:101F600040800000002010080402010000704808B2
:101F70000808F0000000003036010000C030C8281A
:101F8000E810E0000718272423140B000000C038D5
:101F9000E0000000203C23020227382008F888884F
:101FA00088700000203F202020110E00C03008085B
:101FB00008083800071820202010080008F8080832
:101FC0000810E000203F202020100F0008F888882B
:101FD000E8081000203F20202320180008F88888F7
:101FE000E8081000203F200003000000C03008086F
:101FF0000838000007182020221E020008F80800F8
:102000000008F808203F210101213F20000808F8BE
:10201000080800000020203F2020000000000808E1
:10202000F8080800C08080807F00000008F888C0A1
:1020300028180800203F20012638200008F8080052
:1020400000000000203F20202020300008F8F80089
:10205000F8F80800203F003F003F200008F830C09B
:102060000008F808203F200007183F00E01008088B
:102070000810E0000F10202020100F0008F80808BA
:102080000808F000203F210101010000E0100808CD
:102090000810E0000F18242438504F0008F88888F2
:1020A00088887000203F2000030C302000708808D2
:1020B000080838000038202121221C00180808F8E0
:1020C000080818000000203F2000000008F8080061
:1020D0000008F808001F202020201F000878880032
:1020E00000C83808000007380E010000F80800F8A2
:1020F0000008F800033C0700073C0300081868804C
:102100008068180820302C03032C30200838C800C1
:10211000C83808000000203F200000001008080810
:10212000C83808002038262120201800000000FEB2
:10213000020202000000007F40404000000C30C05E
:1021400000000000000000010638C000000202028A
:10215000FE000000004040407F000000000004023C
:102160000202040000000000000000000000000067
:102170000000000080808080808080800002020457
:10218000000000000000000000000000000080804F
:10219000808000000019242222223F2008F80080BD
:1021A00080000000003F112020110E000000008080
:1021B00080800000000E112020201100000000800F
:1021C0008088F800000E112020103F200000808041
:1021D00080800000001F222222221300008080F055
:1021E000888888180020203F202000000000808080
:1021F00080808000006B94949493600008F80080C5
:1022000080800000203F210000203F20008098981F
:10221000000000000020203F20200000000000807F
:102220009898000000C08080807F000008F80000BF
:1022300080808000203F24022D302000000808F814
:10224000000000000020203F2020000080808080CF
:1022500080808000203F20003F20003F8080008061
:1022600080800000203F210000203F20000080806F
:1022700080800000001F202020201F008080008020
:102280008000000080FFA12020110E0000000080CF
:1022900080808000000E112020A0FF8080808000C0
:1022A0008080800020203F212000010000008080ED
:1022B000808080000033242424241900008080E0E2
:1022C000808000000000001F2020000080800000AF
:1022D00000808000001F202020103F208080800090
:1022E0000080808000010E300806010080800080A0
:1022F000008080800F300C030C300F0000808000C5
:10230000808080000020312E0E31200080808000EF
:102310000080808080818E7018060100008080809F
:10232000808080000021302C22213000000000003D
:10233000807C020200000000003F404000000000DE
:10234000FF00000000000000FF0000000002027C0F
:10235000800000000040403F00000000FFFFFFFF42
:10236000FFFFFFFFFFFFFFFFFFFFFFFF707EFEFE8F
:10237000FEFEFEFEFEFEFEFEFEFE783000000000C9
:10238000000000000000000000000000041E1E1AF3
:102390007B7BDBDFDDDF7B7A3E1604040000000080
:1023A00000000000000000000000000080C4FCFCF1
:1023B000FCFCFCFEFEFCFCFCFCFCC400000000007D
:1023C00000000000000000000000000083839F9FC9
:1023D000BFF7F7B7B7F7F7BF9F9F83000000000074
:1023E000000000000000000000000000487C7CFCB1
:1023F000FCFCFCFCFC7CFEFE0E1E1C000000000031
:102400000000000000000000000000008080DFDF0E
:10241000617F3F617FDFDFBFFFE0F0000000000071
:10242000000000000000000000000000808080B07C
:10243000B8BCFEF6B0B0BCBCB8F0E00000000000D4
:1024400000000000000000000000000088988CBC24
:10245000B6B7B7B4B4B7B7B6BC8C980000000000EC
:1024600000000000000000000000000000FCFCB4C0
:10247000B4B4246C6CFEFEFE6CFCF800000000009E
:10248000000000000000000000000000C4F7FFDDB5
:102490005575F5FD3DFFFFFF3D3D35000000000097
:1024A00000000000000000000000000000C0FEFE70
:1024B000868484F4FCBC84848484040000000000CE
:1024C0000000000000000000000000000303FFFF08
:1024D000C0C0F0FFFFC0C0C0FFFFC0000000000090
:1024E000000000000000000000000000F8FCFCFC00
:1024F000FC9C989898FEFE98989890000000000028
:10250000000000000000000000000000FFFFFF1BB3
:102510001F7FFFC1C1FFFFC1FFFF7F000000000060
:10252000000000000000000000000000101236BE95
:10253000ECD85010FEFE181818D8D8000000000083
:1025400000000000000000000000000082C7C76516
:1025500064341CFEFF1D356565C5C5000000000024
:102560000000000000000000000000001030FEFE2F
:1025700030FCFCC4C4FCFCF8FCFCFC0000000000C7
:10258000000000000000000000000000C484FFFF05
:10259000C3F3FFDF82FEFEBFBFFFFF0000000000AD
:1025A000000000000000000000000000008C8CFC17
:1025B000FC8C08E0FE3E1AD8F87000000000000015
:1025C0000000000000000000000000004141617FA9
:1025D0003FB1DBFB70381E071F7CF00000000000DD
:1025E00000000000000000000000000000FCFEF6FB
:1025F000F6D6D6DEDEDED6D6D6F6F6000000000031
:10260000000000000000000000000000E0FFFFE309
:1026100077BE9E86FEFE061E3EF7E3000000000029
:102620000000000000000000000000001010169ED6
:10263000FCF0F0F89898FEFE98F8F000000000001A
:102640000000000000000000000000000C0EFFFF72
:10265000FF071F1F1111FFFF111F1F0000000000C7
:1026600000000000000000000000000000F8F8C8B2
:10267000C8C8CECECCC8C8C8F8F8700000000000AA
:10268000000000000000000000000000E0FF3FFE2E
:10269000FE8282828282828282FEFE000000000030
:1026A00000000000000000000000000080889898F2
:1026B00098989888B030FEFE3030F0E000000000BE
:1026C00000000000000000000000000000607C7FAF
:1026D000676C7CF8E0FCBF8780E0FF3F00000000F3
:1026E00000000000000000000000000000000000EA
:1026F00000000000000000000000000000000000DA
:1027000000000000000000000000000000F0F0F0F9
:102710006000000000000000000000000000000059
:1027200000000000000000000000000000000000A9
:102730000000000000000000000000000000000099
:102740000000000000000000000000003078C8C851
:1027500078300000000000000000000000000000D1
:10276000000000000000000000000000000000F871
:10277000F8F8000000000000000000000000000069
:102780000000000000000000000000000000006FDA
:102790006F6F00000000000000000000000000005B
:1027A0000000000000000000000000000000000029
:1027B00000707858B8F8F0400000000000000000F9
:1027C0000000000000000000000000000000000009
:1027D0000000006E6F6301000000000000000000B8
:1027E00000000000000000000000000000000000E9
:1027F000000000000000F8F81818180000000000A1
:1028000000000000000000000000000000000000C8
:102810000000000000007F3F0000000000000000FA
:1028200000000000000000000000000000000000A8
:10283000F0F8F800000000000000000000000000B8
:1028400000000000000000000000000000206060A8
:102850007F7F3F000000000000000000000000003B
:102860000000000000000000000000000828488967
:102870000E8878080800F80000FF00000000000043
:1028800000000000000000000000000040201009CF
:102890000619600000000F40807F0000000000006B
:1028A000000000000000000000000000101010FFF9
:1028B0001090FE829292929292820000000000009C
:1028C0000000000000000000000000000444827FBF
:1028D00081601F00FF804718244280000000000034
:1028E000000000000000000000000000100C242484
:1028F000242425E62424242424140C0000000000B1
:1029000000000000000000000000000002020202BF
:102910000242827F02020202020202000000000064
:1029200000000000000000000000000000F80000AF
:102930007F55555555557F0000F8000000000000F8
:102940000000000000000000000000008849390974
:1029500009FF000000FF090909F90000000000005C
:10296000000000000000000000000000048484FC5F
:10297000848400FE9292929292FE00000000000079
:102980000000000000000000000000002060201F88
:10299000101000FE4424007E8884E2000000000045
:1029A000000000000000000000000000108C848483
:1029B000848485F68484848484940C000000000060
:1029C00000000000000000000000000020201008AF
:1029D000040201FF01020408102020000000000092
:1029E0000000000000000000000000008484FC845F
:1029F000840004FF24242424FF04000000000000BD
:102A000000000000000000000000000010301F085F
:102A10000800884F290909294F8808000000000094
:102A20000000000000000000000000000080804066
:102A300060505856C8481020204000000000000098
:102A40000000000000000000000000000000000086
:102A5000805F211F20316F40000000000000000057
:102A600000000000000000000000000000E0202046
:102A7000F020006010AEA010100000000000000068
:102A80000000000000000000000000000000010144
:102A9000010000192721404060203800000000009C
:102AA000000000000000000000000000008080A482
:102AB00058C0408060242C206030200000000000BE
:102AC00000000000000000000000000000101317CC
:102AD0000A090C001F2522212120300000000000DF
:102AE00000000000000000000000000000000000E6
:102AF00000F090909454681800000000000000005E
:102B0000000000000000000000000000000020188D
:102B100006013C242424243E0400000000000000A0
:102B20000000000000000000000000000080808025
:102B3000909090404040FC2420E000000000000005
:102B40000000000000000000000000000000080E6F
:102B5000054422140C0320201C0300000000000088
:102B600000000000000000000000000000808080E5
:102B70008090F88888F888884040000000000000B5
:102B80000000000000000000000000000000002025
:102B900018070000003F00000000000000000000D7
:102BA0000000000000000000000000000000000025
:102BB000F488C000C0B08C8060C00000000000003D
:102BC00000000000000000000000000000012123C0
:102BD000150E11001C2424241C0400000000000019
:102BE000000000000000000000000000000040089D
:102BF0004840C42820205ED050480000000000005B
:102C000000000000000000000000000000080E0AA4
:102C1000040318070404427F0202020000000000BF
:102C20000000000000000000000000000000002084
:102C300020E00080BCC04088880000000000000048
:102C40000000000000000000000000000000080577
:102C50000302141008050E1120607000000000002F
:102C600000000000000000000000000000004040E4
:102C7000FCA0206040A428203020000000000000BC
:102C80000000000000000000000000000008042216
:102C90003F02022226190E1331210100000000001C
:102CA0000000000000000000000000000800040018
:102CB00000000000071000000100000000000000FC
:102CC00000000000000000000000000010000000F4
:102CD0000001000003000000000000003400C441B7
:102CE000002D0000000020206000000020010000F6
:102CF000602D000060002020C02500004801000079
:102D000000000000000000000000000000000000C3
:102D100000000000000000000000000000000000B3
:102D200000000000000000000000000000000000A3
:102D30000000000000000000000000000000000093
:102D400000000000000020200031323341343536CD
:102D500042373839432A3023441400000000000071
:04000005000000C136
:00000001FF
